:020000040800F2
:10000000D84B0020A5010008A9010008AB01000899
:10001000AD010008AF010008B101000800000000B8
:1000200000000000000000000000000001010008C6
:10003000B50100080000000045010008E17F00084C
:10004000BB010008BB010008BB010008BB010008A0
:10005000BB010008BB010008BB010008BB01000890
:10006000BB010008BB010008BB010008BB01000880
:10007000BB010008BB010008BB010008BB01000870
:10008000BB010008BB010008BB010008BB01000860
:10009000BB010008BB010008BB010008BB01000850
:1000A000BB010008BB010008BB010008BB01000840
:1000B000352E0008BB010008BB010008BB01000889
:1000C000BB010008BB010008BB010008BB01000820
:1000D000BB0100082F3000089F300008BB0100085A
:1000E000BB010008BB010008BB010008DFF80CD011
:1000F00008F0C6F8004800474B1E0008D84B002007
:10010000204B19680868B0E8F00F80F30988BFF346
:100110006F8F4FF0000080F311884EF00D0E704786
:100120000000000006480068006880F3088862B696
:1001300061B6BFF34F8FBFF36F8F00DF00BF00BF0B
:1001400008ED00E0EFF30980BFF36F8F0D4B1A68E5
:1001500020E9F00F106008B54FF0BF0080F3118860
:1001600006F082FE4FF0000080F31188BDE80840E1
:1001700019680868B0E8F00F80F30988BFF36F8F43
:10018000704700BF48020020EFF311804FF0BF011D
:1001900081F31188704780F311887047EFF3058071
:1001A0007047000005480047FEE7FEE7FEE7FEE770
:1001B000FEE7FEE7FEE7FEE7FEE7FEE7ED000008EC
:1001C00030BF704720BF704740BF7047BFF36F8F8D
:1001D0007047BFF34F8F7047BFF35F8F704701DFEA
:1001E0007047EFF31480704780F31488BFF36F8F6C
:1001F0007047EFF30980704780F309887047EFF389
:100200000880704780F30888704772B6704762B6FE
:10021000704771B6704761B6704780F311887047B8
:10022000EFF31280704740BA704700BA7047000081
:1002300010B50446C548204478B1B0F5806F16D09B
:10024000B0F5744F1DD10121880300F03EFE00215E
:100250004FF4804000F039FE14E00121480400F022
:1002600041FE00214FF4003000F03CFE0AE0012185
:10027000880400F037FE00214FF4802000F032FEA9
:1002800000E000BF00BF10BD2DE9F04385B0064679
:100290000D460024A14600BF00BF348A4CF2FF0087
:1002A0000440E888E9890843298A0843698A0843A1
:1002B000A98A0843044334820024B4894EF6F3101B
:1002C0000440A88829890843A98908430443B481C4
:1002D0000024B48A4FF6FF40044068890443B48286
:1002E00000BF684600F06AFD9948864202D1DDF8F9
:1002F0000C9001E0DDF8089009EBC90000EB091053
:1003000029688900B0FBF1F76420B7FBF0F0040125
:100310002009642101FB1078322000EB0810B0FBAB
:10032000F1F000F00F000443348105B0BDE8F08324
:100330004FF41651016000218180C180018141810B
:100340000C2181810021C18101824182818270471B
:1003500021B1828942F40052828104E082894DF603
:10036000FF731A4082817047F0B5034600240026CF
:1003700000250020C1F3421401F01F06012707FAEF
:1003800006F51846012C01D10C3004E0022C01D1F5
:10039000103000E014301AB107682F43076002E004
:1003A0000768AF430760F0BD1AB1838A0B438382AD
:1003B00002E0838A8B4383827047028A4FF6F07390
:1003C0001A400282028A0A430282704782894FF2EF
:1003D000FF731A40828182890A438281704721B16A
:1003E000828942F00202828104E082894FF6FD7325
:1003F0001A4082817047028A4FF6DF731A400282E8
:10040000028A0A430282704721B1028A42F4804282
:10041000028204E0028A4BF6FF731A4002827047A0
:10042000C1F308028280704701468888C0F3080043
:100430007047818941F0010181817047028BD2B2FE
:100440000283028B42EA012202837047028B02F48C
:100450007F420283028B0A430283704721B1828A62
:1004600042F02002828204E0828A4FF6DF731A4053
:100470008282704721B1828A42F01002828204E0B7
:10048000828A4FF6EF731A408282704721B1828AC6
:1004900042F00802828204E0828A4FF6F7731A4023
:1004A00082827047828A4FF6FB731A408282828A68
:1004B0000A438282704721B1828A42F0020282821C
:1004C00004E0828A4FF6FD731A408282704702462A
:1004D000002013880B400BB1012000E00020704782
:1004E00002888A430280704770B502460B4600249A
:1004F000002100250020C3F3421503F01F0101264F
:1005000006FA01F1012D02D19689314006E0022D53
:1005100002D1168A314001E0968A31401C12012630
:1005200006FA04F41688344011B10CB1012000E041
:10053000002070BD10B5002200230A12012404FA25
:1005400002F304889C43048010BD000000BCFFBF80
:100550000038014010B50446B449601A8C4220D0DE
:1005600006DCB348204450B1B0F5806F34D10FE0C1
:10057000B0F5806F1ED0B0F5006F2DD123E00121C2
:10058000042000F0A2FC0021042000F09EFC24E0E6
:100590000121082000F099FC0021082000F095FCC2
:1005A0001BE00121102000F090FC0021102000F041
:1005B0008CFC12E00121202000F087FC002120208B
:1005C00000F083FC09E00121402000F07EFC0021C6
:1005D000402000F07AFC00E000BF00BF10BD10B565
:1005E0000121084600F071FC0021012000F06DFCA3
:1005F00010BD2DE9F0410246002500260020002311
:100600000024002791F803C00CF00F0591F803C0F7
:100610000CF0100CBCF1000F03D091F802C04CEAB2
:10062000050591F800C0BCF1000F31D0146800201E
:100630002AE04FF0010C0CFA00F3B1F800C00CEA0C
:1006400003069E421FD183004FF00F0C0CFA03F7F4
:10065000BC4305FA03FC4CEA040491F803C0BCF166
:10066000280F05D14FF0010C0CFA00FCC2F814C0A1
:1006700091F803C0BCF1480F05D14FF0010C0CFA02
:1006800000FCC2F810C0401C0828D2D3146000241B
:10069000B1F800C0BCF1FF0F34DD546800202EE03B
:1006A00000F1080C4FF0010808FA0CF3B1F800C093
:1006B0000CEA03069E4221D183004FF00F0C0CFA86
:1006C00003F7BC4305FA03FC4CEA040491F803C0A9
:1006D000BCF1280F05D100F1080C08FA0CF8C2F89B
:1006E000148091F803C0BCF1480F07D100F1080C49
:1006F0004FF0010808FA0CF8C2F81080401C0828D6
:10070000CED35460BDE8F0814FF6FF710180022125
:1007100081700421C17070470246002093680B402D
:100720000BB1012000E0002070470146886880B2CC
:10073000704702460020D3680B400BB1012000E057
:10074000002070470146C86880B270470AB1016155
:1007500000E041617047C1607047016170474161CD
:1007600070474FF480320A438261816182618269FD
:1007700082697047024600202E4B18684FF680733E
:10078000184040EA021008432A4B186070472A4973
:10079000C861704770B50B46002200240021002577
:1007A000244E7168C0F3034582B200F40016B6F51A
:1007B000001F02D121F0E0610AE000F48016B6F5D6
:1007C000801F04D1032606FA05F4A14300E09143FB
:1007D00043B100F40016B6F5001F02D141EA024110
:1007E00000E01143134E716070BD30B500228B07DD
:1007F0001C0F0F2303FA04F20E4B08338C1053F82E
:10080000243093430B4C08348D1044F82530234694
:100810008C1053F824308C07240F00FA04F423437F
:10082000044C08348D1044F8253030BD00100140D0
:1008300000F8FEBF00000140000020420020411EE1
:10084000EF4A11604A0DEE498039C1F88420411EFB
:100850004FF0E022C2F880124A0DEA490A6000BF58
:1008600004E00022E84941F82020401C0B28F8D37E
:10087000704700204FF02061E44A11600021121DF2
:100880001160E349121D11600021121D1160121D3B
:10089000116000BF05E00022DC49143141F820203E
:1008A000401C0328F7D30021D84A20321160491E8A
:1008B000121D1160121D1160121D11607047D44984
:1008C0000143D24A083211607047F0B5002100227E
:1008D000002300250F24C678002E35D0CB4E0836D5
:1008E000366806F4E066C6F5E066310AC1F1040533
:1008F000CC40467806FA05F1867826403143090156
:100900000678B607F60EB140BF4E0778BF1056F80E
:1009100027200678B607F70EFF2606FA07F39A4354
:1009200019400A43B84E0778BF1046F827200678CA
:1009300006F01F070126BE4007787F11BF0007F1B0
:10094000E027C7F800610BE0067806F01F070126D4
:10095000BE40AB4F90F800C04FEA6C1C47F82C60CB
:10096000F0BD0021017041708170C170704710B5F9
:10097000FFF74BFC10BD10B5FFF749FC10BD10B5DB
:10098000FFF747FC10BD10B5FFF745FC10BD10B5D3
:1009900004462001FFF741FC10BD10B5FFF740FCF5
:1009A00010BD9A480068C0F30930704710B5014681
:1009B0000020002201F01F04012303FA04F2904BEF
:1009C00080334C1153F824301340934201D101205D
:1009D00000E0002010BD8F490860704700F01F0242
:1009E00001219140874A121F431142F8231070479A
:1009F00086480068C0F30900704710B50146002022
:100A0000002201F01F04012303FA04F27D4B7C3322
:100A10004C1153F824301340934201D1012000E0DF
:100A2000002010BD7948001F006870477A4A02EA2A
:100A3000C112764B1B1D1A601A46126802431A60D7
:100A400070477348001D714908310860704770484D
:100A5000401C6E4908310860704739B16B4A0C324E
:100A600012680243694B0C331A6006E0674A0C3285
:100A700012688243654B0C331A60704710B5002230
:100A800000F01F04012303FA04F239B15F4B203355
:100A90001B6813435D4C2034236006E05B4B20331E
:100AA0001B689343594C2034236010BDF0B50346B6
:100AB0000C4615460020FF2200260021534F083720
:100AC0003F6807F4E067C7F5E067390AC1F1040041
:100AD000CA4004FA00F105EA02073943090103F0AC
:100AE000C0008009C3F30122D700B9404FEAC20C0D
:100AF000FF2707FA0CF6454F143757F82070B74315
:100B0000DFF808C10CF1140C4CF82070674657F858
:100B100020700F434CF82070F0BD10B50246002045
:100B200000230021910A01F00F01012404FA01F1D0
:100B3000364C2034246804EA01038B4201D10120A1
:100B400000E0002010BD002100F01F012F4A1268B4
:100B500001238B401A432D4B1A60704710B50021BA
:100B600000F01F01294A12684B1E01249C402243B9
:100B7000264B1A6010BD10B502460020002300214C
:100B8000C2F38331012404FA01F1204C203424689B
:100B900004EA01038B4201D1012000E0002010BDD6
:100BA00030B50146002000220023C1F38142C1F389
:100BB00001531AB9154C2834206811E0012A0CD1D0
:100BC000124C24342468DD0024FA05F0022B02D0F4
:100BD00000F00F0004E0C0B202E00C4C2C3420689E
:100BE00030BD014600200022C1F380521AB9074BE4
:100BF0003033186802E0054B343318687047000042
:100C000080E100E084E200E000E400E004ED00E0C8
:100C10000000FA0500EF00E080FFFF1F0020D5492B
:100C2000C86008611420486100208861C8610846D6
:100C3000006840F00100086008464068CE4908405E
:100C4000CC49486008460068CC490840C94908605A
:100C50000846006820F4802008600846406820F4B8
:100C6000FE004860002088607047C249096821F48E
:100C70008031C04A11601146096821F48021116059
:100C8000B0F5803F03D0B0F5802F0ED106E0B94912
:100C9000096841F48031B74A116007E0B549096835
:100CA00041F4A021B34A116000E000BF00BF7047CB
:100CB00001460020AF4A106820F0F80040EAC10069
:100CC00010607047AE490860704702460020A94B8B
:100CD000586820F47C1042EA01031843A54B586081
:100CE0007047A7490866704701460020A14A50682E
:100CF00020F003000843506070479E48406800F0B1
:100D00000C007047014600209A4A506820F0F0001D
:100D100008435060704701460020964A506820F40E
:100D2000E06008435060704701460020914A5068D7
:100D300020F4605040EAC1005060704729B18D4AEC
:100D4000527A02438B4B5A7204E08A4A527A8243A7
:100D5000884B5A7270478A49D831086070470146FB
:100D60000020844A506820F4404008435060704797
:100D70000021804A203211707E4A82F8201001281A
:100D800002D004280AD104E001217A4A20321170ED
:100D900005E00521774A2032117000E000BF00BF56
:100DA00070477849086070477249096A0143714A7F
:100DB00011627047734944390860704730B50021AB
:100DC0000022002400236B4D6D6805F00C0121B159
:100DD000042905D0082923D105E06B4D056022E0E8
:100DE000694D05601FE0634D6D6805F470120225C2
:100DF00005EB92425F4D6D6805F480341CB9634D7C
:100E0000554305600BE05B4D6D6805F400351DB181
:100E10005E4D5543056002E05B4D5543056002E0C1
:100E2000594D056000BF00BF524D6D6805F0F001DF
:100E30000909574D6B5C0568DD4045604D4D6D6897
:100E400005F4E061090A524D6B5C4568DD40856040
:100E5000484D6D6805F46051C90A4D4D6B5C45689D
:100E6000DD40C560434D6D6805F44041890B494D37
:100E70006B5CC568B5FBF3F5056130BD29B13D4A32
:100E8000526902433B4B5A6104E03A4A5269824339
:100E9000384B5A61704729B1364A92690243354B43
:100EA0009A6104E0334A92698243324B9A617047F7
:100EB00029B1304AD26902432E4BDA6104E02D4A4F
:100EC000D26982432B4BDA61704729B1294AD26833
:100ED0000243284BDA6004E0264AD2688243254B5D
:100EE000DA60704729B1234A12690243214B1A6123
:100EF00004E0204A126982431E4B1A61704721495F
:100F00004039086070471E49C86470471949C87164
:100F1000704710B501460022002300204A11012A23
:100F200002D1144C236806E0022A02D1114C236A34
:100F300001E0104C636A01F01F02012494401C4040
:100F40000CB1012000E0002010BD0A48406A40F0CA
:100F5000807008494862704701460020054A92683F
:100F60000A400AB1012000E0002070470149887260
:100F700070470000001002400000FFF8FFFFF6FE7F
:100F80000000424280044242001BB700808D5B009B
:100F90006A8600087A86000810B504468248204414
:100FA00060B1B0F5784F13D101210803FFF78DFF31
:100FB00000214FF48050FFF788FF0AE001218803E9
:100FC000FFF790FF00214FF48040FFF78BFF00E018
:100FD00000BF00BF10BD10B50022028802F44152CC
:100FE0000B884C8823438C882343CC8823430C896B
:100FF00023434C8923438C892343CC8923431A43BD
:1010000002800B8A038210BD002101804180818013
:10101000C180018141818181C181072101827047A5
:1010200021B1028842F04002028004E002884FF6BB
:10103000BF731A400280704730B5002400230C11A2
:101040000125A540ABB21AB185881D43858002E019
:1010500085889D43858030BD1AB183880B4383808A
:1010600002E083888B43838070478181704701460B
:10107000888970474FF6FF62914204D0028842F49B
:101080008072028004E002884FF6FF631A400280FB
:10109000704721B1828842F00402828004E0828895
:1010A0004FF6FB731A408280704721B1028842F4E8
:1010B0000062028002E002880022028070470188FC
:1010C00041F480510180704721B1028842F40052FE
:1010D000028004E002884DF6FF731A4002807047D8
:1010E00002460020012901D0108B00E0908A704751
:1010F0000146088A7047B1F5804F04D1028842F456
:101100008042028004E002884BF6FF731A4002809E
:1011100070470246002013890B400BB1012000E00C
:1011200000207047202905D10289028842F0400240
:10113000028006E0402901D1028902E002898A4347
:1011400002817047F0B502460020002400230025EC
:1011500001F00F070126BE40B4B20B1101269E40DC
:10116000B3B2968806EA03051689264016B10DB17A
:10117000012000E00020F0BD10B50022552905D166
:101180000389038843F0400303800BE0562901D113
:10119000038907E001F00F040123A3409AB20389F9
:1011A0009343038110BD000000C8FFBF042808D18D
:1011B0004FF0E021096941F004014FF0E022116194
:1011C00007E04FF0E021096921F004014FF0E0222F
:1011D000116170474FF0E0214861704720B900214C
:1011E0004FF0E022916112E0012808D14FF0E02198
:1011F000096941F001014FF0E022116107E04FF071
:10120000E021096921F001014FF0E02211617047EE
:1012100040B14FF0E021096941F002014FF0E022B6
:10122000116107E04FF0E021096921F002014FF060
:10123000E022116170474FF0E0208069704710B5DF
:1012400001460022002300204A11012A03D14FF059
:10125000E024236902E04FF0E024E36901F01F027B
:10126000012494401C400CB1012000E0002010BD7E
:1012700010B50446B4F1804F06D0F648204460B162
:10128000B0F5806F1BD111E001210846FFF72AFE5F
:1012900000210120FFF726FE12E001210220FFF7C6
:1012A00021FE00210220FFF71DFE09E0012104209C
:1012B000FFF718FE00210420FFF714FE00E000BF36
:1012C00000BF10BD0A8882854A880285028802F024
:1012D0009F0202808A88CB881A4303881A430280BF
:1012E000704730B500230022028C4C8814B14C8822
:1012F000012C2BD1038B4C88D74D35F8144023405B
:101300004C88D64D35F8144022404C886CB9048C7A
:101310004FF6FE752C4004840C8823438C88848609
:1013200042F00102CC8822430EE0048C4FF6EF75A8
:101330002C4004840C8843EA04238C88048742F000
:101340001002CC8842EA0412038333E04C88022C5A
:1013500002D04C88032C2DD1838B4C88BE4D35F8A0
:10136000144023404C88BD4D35F8144022404C8831
:10137000022C0ED1048C4FF6FF652C4004840C889F
:1013800023438C88848742F48072CC8842EA04220A
:101390000FE0048C4EF6FF752C4004840C8843EA61
:1013A00004238C88A0F8404042F48052CC8842EA62
:1013B00004328383028430BD0A460021018B4FF63C
:1013C000F3731940114301837047F0B50C4615467D
:1013D00000210022018B028C068C4FF6FE773E40E6
:1013E000068447F60C76314045EA03163143BE1EAB
:1013F000324044F001063243002606830183028412
:10140000F0BD02460020108B4FF2FF3318404FF61C
:10141000FF7303EA0123184310837047F0B50C46AD
:101420001546002100220026018B028C4FF6FF7723
:1014300007EA0416078C4FF6EF7C07EA0C070784CF
:1014400040F67F4739404FF6FF7707EA03373943C5
:101450004FF6FF7707EA052739434FF6CF773A4033
:1014600046F010073A4301830284F0BD2DE9F041B4
:1014700005460C4600260127A08808B9022600E090
:101480000026E088012801D1022700E001276088BA
:10149000A0B9A37AE288A1882846FFF796FF2189A0
:1014A0002846FFF789FFA37A3A4631462846FFF7D8
:1014B000B5FF21892846FFF7A4FF13E0A37AE2884D
:1014C000A1882846FFF7AAFF21892846FFF799FF40
:1014D000A37A3A4631462846FFF777FF2189284606
:1014E000FFF76AFFBDE8F08102460020908B4FF2C3
:1014F000FF3318404FF6FF7303EA0123184390832C
:101500007047F0B50C461546002100220026818B5D
:10151000028C4FF6FF7707EA0436078C4EF6FF7C05
:1015200007EA0C07078440F67F4739404FF6FF77FC
:1015300007EA05274FF6FF7C0CEA033C47EA0C0755
:1015400039434CF6FF773A4046F480573A4381835B
:101550000284F0BD0A460021818B4FF6F3731940D7
:10156000114381837047F0B50C46154600220021D7
:101570000026828B018C4FF6FF7707EA0426078C42
:101580004FF6FF6C07EA0C07078447F60C773A40E2
:1015900045EA03173A434FF6FC77394046F4807723
:1015A000394382830184F0BD70B505460C4620881E
:1015B000072833D1608850B9A37AE288A1882846E9
:1015C000FFF703FF21892846FFF7F6FE2AE060882F
:1015D00001280AD1A37AE288A1882846FFF71EFFD6
:1015E00021892846FFF70DFF1CE0608802280AD1F8
:1015F000A37AE288A1882846FFF7B5FF218928460B
:10160000FFF7A8FF0EE0A37AE288A1882846FFF73B
:1016100078FF21892846FFF767FF03E02146284627
:10162000FFF724FF70BD0021018041808180C180CF
:1016300070470021018041808180C180704707216F
:1016400001800021418081800121C1800021018130
:101650008172704700FCFFBF7E8600088686000806
:1016600021B1028842F00102028004E0028840F2C7
:10167000FE331A40028070471AB183890B4383817D
:1016800002E083898B438381704710B50023B0F853
:101690004830002341EA02042343A0F8483010BD3B
:1016A00010B51346002282890BB10A4302E0CC43F5
:1016B000A4B22240828110BD01894FF6F072114020
:1016C000018170470A46002101894FF6877319404E
:1016D00011430181704730B504460D462946204626
:1016E000FFF7F0FF208940F00700208130BD2DE991
:1016F000F04104460D4616461F46602D06D13B4676
:10170000012231462046FFF789FE05E03B460122D3
:1017100031462046FFF759FE29462046FFF7D2FF03
:10172000208940F007002081BDE8F08130B50C46EB
:101730000021018901F0F70144EA020545EA032589
:101740002943018130BD2DE9F04104460D4616467E
:101750001F463B46324629462046FFF7E7FF2089D1
:101760004FF6F07108402081208940F00700208169
:1017700020894FF6877108402081208940F0700051
:101780002081BDE8F0812DE9F04104460D46164662
:101790001F463B46324629462046FFF7C7FF2089B1
:1017A00040F480402081BDE8F0810185012A04D108
:1017B000838A43F00103838203E0838A03F00103F9
:1017C000838270470A460021018840F29F33194006
:1017D0001143018070470A460021018B47F60F73C1
:1017E000194011430183704702460020108B40F6D8
:1017F0007F7318404FF6FF7303EA012318431083E9
:1018000070470A460021818B47F60F731940114338
:101810008183704702460020908B40F67F7318400A
:101820004FF6FF7303EA01231843908370470A467B
:101830000021018812B141F0800102E040F27F33C3
:101840001940018070470A460021818812B141F099
:10185000080101E001F00701818070470A4600217C
:10186000018B47F677731940114301837047024695
:101870000020108B47F27F7318404FF6FF7303EA86
:1018800001231843108370470A460021818B47F6D5
:101890007773194011438183704702460020908B73
:1018A00047F27F7318404FF6FF7303EA0123184392
:1018B000908370470A460021018B47F67B731940DD
:1018C00011430183704702460020108B47F67F3397
:1018D00018404FF6FF7303EA012318431083704743
:1018E0000A460021818B47F67B731940114381839F
:1018F000704702460020908B47F67F3318404FF622
:10190000FF7303EA01231843908370470A460021BE
:10191000018812B141F0020102E040F2FD331940AA
:1019200001807047F0B50C4615461E460022002186
:1019300000230289018B038C4FF6F0773A40224353
:1019400047F67C47394040F2011739434FF6DD77BF
:101950003B404FF6FF7707EA06172F433B430281D0
:1019600001830384F0BD828A0A43828270470A465B
:101970000021018C4FF6FD7319401143018470471B
:1019800002460020108C4FF6DF7318404FF6FF73AD
:1019900003EA011318431084704702460020108C9C
:1019A0004FF6FF5318404FF6FF7303EA0123184325
:1019B0001084704702460020108C4DF6FF731840CB
:1019C0004FF6FF7303EA01331843108470470A4649
:1019D00000210188012A02D141F0040102E040F215
:1019E000FB3319400180704721B1828842F08002A8
:1019F000828004E082884FF670731A4082807047BC
:101A00000A460021018840F2F73319401143018052
:101A100070470A460021818801F0800111438180CE
:101A200070470A46002101894FF6F07319401143AF
:101A3000018170470A46002101894FF677731940EA
:101A40001143018170478185704781867047018706
:101A5000704781877047A0F8401070470A46002100
:101A60000188C9B21143018070470146888E7047D2
:101A70000146088F70470146888F70470146B1F8CC
:101A8000400070470146888C70470146088D7047BA
:101A900002460020138A0B400BB1012000E0002019
:101AA0007047028A8A430282704730B5024600209E
:101AB00000230024158A05EA0103958905EA01043B
:101AC00013B10CB1012000E0002030BD028A8A432E
:101AD0000282704738B503F03AF918B9F0A006F061
:101AE0002BFC38BDF4A006F027FCF749002002F0DB
:101AF000DAFA044624B12146F4A006F01DFCF0E712
:101B0000F8A006F019FCF8A006F016FC1322FAA1C2
:101B1000FC4802F0DBFA044624B12146EBA006F0B3
:101B20000BFCDEE7EFA006F007FCF7A006F004FCD4
:101B30006B460F22F849F34802F035FC044614B90D
:101B400000980F2804D02146E0A006F0F5FBC8E776
:101B5000E4A006F0F1FBF1A006F0EEFBE94802F08C
:101B60007BFD044624B12146D8A006F0E5FBB8E78A
:101B7000EEA006F0E1FB00BFB3E770B504460D46EA
:101B80002946204603F01BF970BD0FB410B5C0B054
:101B900042AAE8A1684606F0DFFB6946002003F090
:101BA0005DF9684606F008FB0446204640B010BCCC
:101BB0005DF814FB0FB430B5C3B004460A2151A838
:101BC0004CAB56AACDE90001E8A103A806F0C4FB7E
:101BD00003A9204603F042F903A806F0EDFA0546F2
:101BE000284643B030BC5DF814FB9AB000F010FBFF
:101BF000684600F0BCFE4FF4E270ADF85E000220D3
:101C0000ADF85C0000BF00235A1E1946E448006886
:101C100006F08DF8012811D100F009FB012804D14C
:101C20001890684600F014FB01E000201890002393
:101C30001A461946DA48006805F05CFF002341F2B5
:101C400088326946D748006805F054FF41F2883071
:101C500005F059F8D7E7ADF5447D00BF4FF480712A
:101C60001AA806F080FA01240025012600F0B5FD2F
:101C700000F047FBCCA000F0C8FB01F05FFA03F0D6
:101C800069F800200323CDE90030029003464FF4A9
:101C9000C072CCA10390CC4804F007FE00BF002323
:101CA00041F28832AAA9BF48006806F040F800282F
:101CB000F5D0C2980028F2D000235A1E1946B84821
:101CC000006806F034F80128E9D15AA85822AEA9D4
:101CD0001690684606F02EFAAAA80FC800F002FF78
:101CE00042F210715AA800F090FC022837D1B7A038
:101CF00000F023FD062812D10020C39000265C22AC
:101D0000ADA9684606F016FA2046AAA90EC9FFF743
:101D100051FF0544641CA4A000F077FB1FE00120E4
:101D2000C390DEB95822AEA9684606F003FAAAA805
:101D30000FC8FFF72AFF0544A74844F62061582240
:101D4000CDE91645CDE91810AEA9684606F0F2F9BE
:101D5000AAA80FC800F096FC012400250126002344
:101D60001A4619468E48006805F0C4FE97E708B584
:101D70004FF48030FEF779FF00BF3120FFF7C9F83C
:101D80000028FAD00220954908600020FEF7BAFF2B
:101D90000020FEF7C9FF4FF48060FEF7BCFF4FF450
:101DA00080110811FEF791FF0120FEF79AFF00BF96
:101DB0003920FFF7AEF80028FAD00220FEF794FF92
:101DC00000BFFEF79AFF0828FBD101211D20FFF775
:101DD00062F800210846FEF729FE4FF44070FEF736
:101DE0006EFD0420FFF7E2F980234FF4E1327C49D5
:101DF0007C4801F04DF84FF4C550ADF800000320C9
:101E00008DF8020010208DF8030069467648FEF731
:101E1000F0FB4FF4C070ADF8000003208DF8020015
:101E200010208DF8030069467048FEF7E2FB0120A0
:101E3000ADF8000003208DF8020010208DF803009B
:101E400069466B48FEF7D5FB08BD1FB5FFF78FFF4E
:101E500000226821142005F09CFD524908600846C4
:101E6000006808B900BFFEE7012005F0B8FE4C4944
:101E700008600846006808B900BFFEE70020042398
:101E8000CDE90030029003464FF4086259A1039057
:101E90005A4804F00AFD05F037F9002004B010BDDF
:101EA0005344436172642069736E277420646574BF
:101EB00065637465640A0000665F6D6F756E7428F3
:101EC00029202E2E2E200000A40200206661696CBD
:101ED0006564207769746820636F64652025640AEF
:101EE000000000004F4B0A00665F6F70656E282986
:101EF000202E2E2E20000000746573742E747874CA
:101F000000000000D4040020665F777269746528C1
:101F100029202E2E2E2000009B860008665F636C11
:101F20006F73652829202E2E2E200000204F4B0A8B
:101F3000000000007B226964223A2573222C2022B3
:101F40006F6E6C696E65223A66616C7365222C2235
:101F5000677073223A74727565222C22706F7369F0
:101F600074696F6E223A5B0A000000007B22646194
:101F70007465223A222573222C226C6174223A2243
:101F80002573222C226C6E67223A222573222C2282
:101F90007370656564223A222564227D000000008A
:101FA0000400002000000020687474703A2F2F7025
:101FB000747376322E636F6D2F742F48616F2F709C
:101FC0006F73740047505300EB1B00087374617407
:101FD00075733A74727565007B1B0008002002401F
:101FE00004090020004400400008014000100140A6
:101FF000000C01404750525300000000571C0008DD
:102000001FB501F09BF802F0A5FE00200223CDE9E8
:102010000030029003464FF408620CA103900D4873
:1020200004F043FC00BFFEE70BA20321002000F0F8
:1020300063FE00BFFEE770B504460D46002261B2A4
:10204000074800F0CFFF204670BD000053415645C1
:102050004C4F4300EB1B00084641494C2E2E2E00EE
:1020600004090020F0B5A1B006460D46002405F095
:1020700071F8074600BF142220A9FC4800F0A3FF16
:1020800038B19DF880202046611CCCB20DF80020AC
:102090000BE09DF880000A2807D1A01E1DF8000063
:1020A0000D2802D1042C00DD06E005F053F8C01B1A
:1020B000A84201D2802CDEDB00BF802C02D10020A0
:1020C00021B0F0BD00200DF804006946304606F04E
:1020D0007AF80120F4E72DE9F041A2B004460F465A
:1020E00015461E464FF0010800235A1E1946E048C7
:1020F000006805F01CFE01282AD100BF642201A956
:10210000DA4800F060FF0128F8D02146D9A006F097
:1021100013F9314602A8FFF7A5FF10B94FF00008E8
:102120000FE0394602A806F029F850B1314602A85E
:10213000FFF798FF294602A806F020F808B94FF0EB
:10214000000800231A461946C948006805F0D2FC69
:102150004FFA88F022B0BDE8F0812DE9F041A2B03D
:1021600005460E46174600244FF00108802101A8BD
:1021700005F0F9FF00235A1E1946BD48006805F016
:10218000D6FD012842D100BFC82221A9B74800F0DE
:102190001AFF0128F8D02946B6A006F0CDF800BFF6
:1021A0003A4621A9B14800F00EFF38B19DF88420CD
:1021B0002046611CCCB201A90A5402E04FF000088D
:1021C00007E0314601A805F0D9FF00B101E0802CFD
:1021D000E6DB00BF802C02D0B8F1000F0AD100234B
:1021E0001A461946A248006805F084FC002022B077
:1021F000BDE8F081002001A9085500231A461946C0
:102200009B48006805F076FC0120F0E70020EEE72F
:1022100010B54FF4FA6298A198A0FFF79EFF4FF413
:10222000FA6295A199A0FFF798FF012010BD10B5A3
:102230004FF4FA6299A19BA0FFF78FFF012800D10C
:1022400010BD4FF4FA629BA196A0FFF786FFF7E757
:1022500070B5A2B0044600235A1E1946844800688F
:1022600005F065FD012849D100BF642201A97F481E
:1022700000F0A9FE0128F8D090A006F05DF84FF418
:10228000FA6102A8FFF7EEFE01282FD18FA102A864
:1022900005F0A2FF8DA1002005F09EFF0646314605
:1022A00004F1280005F08FFF88A1002005F094FFBD
:1022B0000646314604F1140005F085FF84A1002094
:1022C00005F08AFF81A1002005F086FF80A1002093
:1022D00005F082FF0646314604F13C0005F073FF2D
:1022E0007AA1002005F078FF012500E000250023F9
:1022F0001A4619465E48006805F0FCFBE8B222B0B9
:1023000070BD10B54FF4FA625BA172A0FFF725FF14
:102310004FF4FA6258A177A0FFF71FFF4FF4FA625B
:1023200055A17CA0FFF719FF4FF4FA6252A17DA0DE
:10233000FFF713FF10BD70B58EB004460D4616466C
:10234000342101A805F00FFF41F2883279A17BA06A
:10235000FFF703FF2B4622467BA101A805F0FCFFF7
:10236000334680A244A101A8FFF7B5FE012802D19F
:1023700000200EB070BD0120FBE72DE9F0410546BD
:10238000284605F019FF871C384605F056FE06461C
:1023900016B90820BDE8F08142F2107274A175A050
:1023A000FFF7DBFE012810D11A232A4674A130461C
:1023B00005F0D2FF44F6206273A13046FFF7CDFE50
:1023C00008B9052402E0032400E00424304605F0A7
:1023D00087FE2046DEE710B54FF4FA6261A16CA0DB
:1023E000FFF7BBFE012801D1002010BD0120FCE752
:1023F00010B542F210726AA16CA0FFF7AEFE012880
:1024000001D1062010BD0720FCE730B5C1B004465D
:1024100001254FF47A7218A167A0FFF79EFEFFF71F
:1024200070FF4FF47A7214A166A0FFF796FEC5B252
:10243000012D1AD14FF47A720FA165A0FFF78DFE1E
:10244000C5B2012D02D0012041B030BD224665A1A8
:1024500001A805F081FF4FF47A7207A101A8FFF7E8
:102460007CFE4FF4FA6204A1C8E0CCE0040900202D
:102470000C00002025730D004F4B000041542B43EE
:102480004750535057523D310000000041542B43F8
:102490004750535253543D3100000000334420460E
:1024A0006978000041542B434750535354415455CD
:1024B000533F0000324420466978000041542B43CA
:1024C000475053494E463D300D0000002C0000009F
:1024D0002E00000041542B53415042523D332C31C9
:1024E0002C22436F6E74797065222C224750525310
:1024F0002200000041542B53415042523D332C31B5
:102500002C2241504E222C22762D696E7465726EFB
:102510006574220041542B53415042523D312C31BD
:102520000000000041542B53415042523D322C31A7
:102530000000000053485554204F4B0041542B439A
:10254000495053485554000041542B43495053546B
:102550004152543D22544350222C222573222C22D6
:1025600025732200434F4E4E454354204F4B0000ED
:102570003E00000041542B43495053454E44000057
:10258000257325630000000053454E44204F4B0047
:1025900041542B43495053544154555300000000BB
:1025A000434C4F5345204F4B0000000041542B43F8
:1025B0004950434C4F53450041542B4854545054B8
:1025C00045524D0041542B48545450494E495400F3
:1025D00041542B48545450504152413D22434944A8
:1025E000222C310041542B48545450504152413D0B
:1025F0002255524C222C222573220000F7A0FFF70F
:10260000ACFD002020E701201EE72DE9F0418EB04F
:1026100005460C46342101A805F0A5FD022604F06C
:1026200099FD074600BF04F095FDC01B6428FAD34E
:10263000284605F0C1FD00F1010823464246F2A1FB
:1026400001A805F089FE4FF4FA62F4A101A8FFF792
:1026500084FD012811D144F62062AFF2E41128462E
:10266000FFF77BFD012801D0032607E04FF4FA6253
:10267000EDA1F0A0FFF771FD00E0032630460EB09B
:10268000BDE8F0812DE9F84F20AD95E8E0011E206E
:1026900005F0D3FC0090A02005F0CFFC83464FF05E
:1026A000020904F057FD824600BF04F053FDA0EB81
:1026B0000A003228F9D37019821C3B46D2A1009837
:1026C00005F04AFE4FF4FA62D4A10098FFF745FDE9
:1026D000012827D1002410E059462046C047681E33
:1026E000A04205D924B15946D6A005F025FE03E045
:1026F0005946D5A005F020FE641CAC42ECD344F64C
:102700002062AFF28C21D1A0FFF727FD012801D074
:102710004FF003094FF4FA62AFF2A421C5A0FFF70E
:102720001CFD01E04FF00309009805F0D9FC584664
:1027300005F0D6FC4846BDE8F88F70B5044607257D
:1027400004F008FD064600BF04F004FD801B642869
:10275000FAD342F210722146BDA0FFF7FEFC062517
:10276000284670BD10B54FF47A72AFF2F421AFF283
:10277000B810FFF7F2FC012801D1052010BD04209C
:10278000FCE730B5A9B0002501AC4FF4FA62AFF216
:102790001831B2A0FFF7E1FCD0B100BF4FF6FF72D5
:1027A0006946B34800F00FFC28B19DF8000004F81A
:1027B000010B681C85B214F8020C0D2806D19DF897
:1027C00000000A2802D1022D00DD00E0E6E700BF8C
:1027D00000202070012029B030BD10B5012005F087
:1027E000FEF9A44908600846006808B900BFFEE782
:1027F0004FF4FA62AFF280319FA0FFF7AEFC40F6D3
:10280000B832AFF2D021AFF2CC20FFF7A6FC4FF4E4
:10281000FA62AFF29C319BA0FFF79FFC4FF4FA6283
:10282000AFF2AC319AA0FFF798FC4FF4FA62AFF226
:10283000B8319AA0FFF791FC10BD10B54FF4FA62C1
:10284000AFF2CC3197A0FFF788FCF0B90122114616
:102850009548FDF77BFF40F6B83004F054FA0022AB
:1028600001219148FDF772FF4FF4FA62AFF2F8319F
:102870008EA0FFF772FC00BF4FF4FA62AFF208417E
:1028800088A0FFF76AFC0028F6D010BD2DE9F041C2
:1028900007460C46002687A1384605F09DFC0546F4
:1028A00010E085A1002005F097FC05463146761C16
:1028B00001EB810104EB4100294605F084FC052E63
:1028C00000D101E0002DECD100BFBDE8F08130B5B2
:1028D00097B0044600235A1E19466648006805F062
:1028E00026FA012841D1342102A805F03CFC00BFA2
:1028F000642201A95E4800F066FB0128F8D070A0B0
:1029000005F01AFD4FF4FA610FA8FFF7ABFB28B3EF
:1029100002A90FA8FFF7BAFF54A107A805F05CFCB5
:102920000546294604F1500005F04DFC4FA10DF17C
:10293000260005F051FC0546294604F1560005F035
:1029400042FC62A104F1140005F03DFC5FA104F11A
:10295000280005F038FC5FA00088A08700231A46F5
:1029600019464448006805F0C5F817B030BD70B589
:102970008AB0054600235A1E19463E48006805F0F5
:10298000D6F9012826D100BF642201A9384800F0F9
:102990001AFB0128F8D050A005F0CEFC4FF4FA61E4
:1029A00002A8FFF75FFB68B14DA102A805F0E6FBA6
:1029B000861C0F223146284605F0F2FB0020E87302
:1029C000012400E0002400231A4619462948006823
:1029D00005F090F8E0B20AB070BD000041542B48F9
:1029E000545450504152413D22434F4E54454E5451
:1029F000222C226170706C69636174696F6E2F6A3A
:102A0000736F6E220000000041542B485454504410
:102A10004154413D25642C2564000000444F574E2D
:102A20004C4F4144000000002B4854545041435443
:102A3000494F4E0041542B48545450414354494F40
:102A40004E3D310025732C00257300000A5D7D008A
:102A500041542B48545450524541440041542B4357
:102A60005553443D312C222A3130312322000000BD
:102A7000040900200C00002041542B4346554E3DD4
:102A80003100000041542B4353434C4B3D31000077
:102A900041542B434D47463D3100000041542657D9
:102AA0000000000041540000000C0140415445303A
:102AB000000000003A0000002C220D0A0000000077
:102AC00041542B435245473F0D000000302E30301B
:102AD000000000003000000041542B47534E0D0011
:102AE0000D0A00000FB410B5ACB0489C002138A806
:102AF000CDE90001029133AB2EAA039106A104A8EF
:102B000005F02AFC04AAAFF2C001204605F024FC1F
:102B10002CB010BC5DF814FB7B226964223A25734B
:102B20002C226C6174223A25732C226C6F6E223A2F
:102B300025732C227370656564223A25642C226605
:102B400075656C223A25642C2262656172696E6734
:102B5000223A25647D000000002000E0401CB0F512
:102B60007A7FFBD37047002000E0401C40F27441A4
:102B70008842FAD3704700B50246002300BF02E046
:102B8000FFF7F1FF5B1C9342FAD300BD70B504461A
:102B90000E4600224FF400617C48FDF7D7FD36B9A0
:102BA00000224FF480717A48FDF7D0FD04E0012245
:102BB00011027748FDF7CAFD00251BE004F08000F4
:102BC00028B1012280217148FDF7C0FD04E00022F8
:102BD00080216E48FDF7BAFD002220216B48FDF7E9
:102BE000B5FD6006040E012220216848FDF7AEFD08
:102BF000681CC5B2082DE1DB0122D1026348FDF754
:102C0000A5FD70BD10B500210C20FFF7BFFF00210E
:102C10008020FFF7BBFF002404E001210020FFF724
:102C2000B5FF641CB4F5FC7FF7D310BD10B50122CD
:102C300080215748FDF78AFD00224FF48051534808
:102C4000FDF784FDFFF788FF012211034F48FDF7D0
:102C50007DFD00224FF400614C48FDF777FDFFF742
:102C60007BFF0122D1024948FDF770FDFFF774FF99
:102C700000212120FFF78AFF0021C820FFF786FFEF
:102C800000210620FFF782FF00211320FFF77EFFBF
:102C900000212020FFF77AFFFFF7B4FF00210C206E
:102CA000FFF774FF00224FF400613848FDF74EFD36
:102CB00010BD70B504460D4645F040000021FFF7F9
:102CC00065FF44F080000021FFF760FF70BD70B524
:102CD0000446A4F12000C4B200250AE004EB44013C
:102CE0002C4A02EB4101485D0121FFF74FFF681CB0
:102CF000C5B2062DF2DB70BD70B505460E46144612
:102D000031462846FFF7D5FF03E02078FFF7DFFFC5
:102D1000641C20780028F8D170BD2DE9F05F83464F
:102D2000894692461E460A9CE11704EB5171C91070
:102D3000A4EBC10131B92046E11704EB5171C1F395
:102D4000C70807E02046E11704EB5171C910491C80
:102D500001F0FF08002514E049465846FFF7A9FF97
:102D6000002707E005FB06711AF801000121FFF7B3
:102D70000DFF7F1CB742F5D309F1010000F0FF09F8
:102D80006D1C4545E8D3BDE8F09F000000080140F8
:102D900000100140100000203EB501210846FEF75A
:102DA00087F801210220FEF783F84FF08040FEF7FC
:102DB0005FFA3248FEF75CFA01A8FEF734FC4FF4E4
:102DC0006164ADF804400020ADF80600ADF80800DD
:102DD000ADF80A0001A9A006FEF774FA01218807E0
:102DE000FEF725FD4FF6FF70ADF8040001A923485A
:102DF000FEF768FA01212148FEF719FD1C208DF825
:102E0000000000208DF802008DF8010001208DF8EF
:102E100003006846FDF759FD012211469007FEF7B1
:102E20002BFC01218807FEF71BFC01211348FEF74C
:102E300017FC3EBD70B51148243005881048008845
:102E400005280FDB0F480088281A84B20E48008836
:102E500084420CDD0C4804800088A0F561600B49B9
:102E6000088004E006480088401C054908800548A1
:102E7000058001218807FEF729FE70BD000400408F
:102E80003C0200203A0200203E02002038020020CE
:102E90002DE9F04188B006460C4617461D46002233
:102EA0000121284604F075FDA06000220121681C64
:102EB00004F06FFD60602660A06800287DD0606827
:102EC00000287AD096492068884205D1012144F231
:102ED0000400FDF7E0FF03E001219248FDF7E8FF61
:102EE0008F492068884203D10015ADF8000002E048
:102EF0000820ADF8000004208DF8030069468A48D8
:102F0000FDF777FB86492068884203D14015ADF86C
:102F1000000002E00420ADF8000003208DF802005C
:102F200018208DF8030069467F48FDF762FB029781
:102F30000020ADF80C00ADF80E00ADF81000ADF8B3
:102F400012000C20ADF814000020ADF81600ADF80A
:102F500018004FF40070ADF81A000020ADF81C0006
:102F600002A92068FDF790F9002240F2277120683D
:102F7000FDF7FAF9012240F225512068FDF7F4F936
:102F800067492068884203D125208DF8040002E0BB
:102F900026208DF804000F208DF8050000208DF804
:102FA000060001208DF8070001A8FDF78EFC012125
:102FB0002068FDF7CDF902E0FFE74FF0000840463A
:102FC00008B0BDE8F08170B504460D4616460023F2
:102FD00032462946A06804F0AAFE08B1012070BD5F
:102FE0000020FCE770B505460C461646A1B24F48D6
:102FF000FDF716FA00BF40214C48FDF768FA00289B
:10300000F9D0012070BD2DE9F04106460D46174666
:103010002C4606E094F9001000223046FFF7E2FF4C
:10302000641C20780028F5D1BDE8F08170471CB5FC
:103030000020019040F227713948FDF755FA012828
:1030400013D13B4901AA4868694604F0FEFE0128F5
:1030500005D19DF800103248FDF7E2F905E00022A5
:1030600040F227712E48FDF77FF940F225512C4898
:10307000FDF73AFA01280BD12948FDF7D5F9C0B27E
:1030800000902B49002301AA8868694604F0CBFD13
:10309000019818B14FF08050264908601CBD1CB53E
:1030A0000020019040F227712048FDF71DFA012809
:1030B00017D1214901AA4868694604F0C6FE0128D3
:1030C00005D19DF800101948FDF7AAF905E0002286
:1030D00040F227711548FDF747F980211348FDF7A5
:1030E000FFF940F225511148FDF7FEF901280FD1F3
:1030F00020210E48FDF7F4F90C48FDF795F9C0B210
:1031000000900D49002301AA8868694604F08BFDF0
:10311000019818B14FF08050064908601CBD0000AE
:103120000038014004000200000801400044004053
:10313000F808002004ED00E00409002000B587B085
:1031400001211420FDF7A7FE01210803FDF7A3FECE
:103150002020ADF8040003208DF8060018208DF81B
:10316000070001A92948FDF744FA8020ADF80400C2
:1031700001A92648FDF73DFA4020ADF804000420DF
:103180008DF8070001A92148FDF733FA2048FDF723
:1031900003FF0020ADF808004FF48270ADF80A007C
:1031A0000020ADF80C00ADF80E00ADF810004FF4A3
:1031B0000070ADF812001020ADF814000020ADF83A
:1031C00016000A20ADF8180002A91148FDF703FF08
:1031D00001210F48FDF724FF07B000BD10B50446DC
:1031E00000BF02210A48FDF794FF0028F9D02146CC
:1031F0000748FDF73AFF00BF01210548FDF789FFA9
:103200000028F9D00248FDF732FF10BD0008014048
:103210000030014010B504460CB1012010BD01F092
:1032200096FD08B90220F9E701F094FD08B10120EC
:10323000F4E70020F2E7014609B1012070470020C1
:10324000FCE72DE9F0410646884617461C4606B9BC
:1032500014B90420BDE8F081012C05D1414638465F
:1032600001F0ADFD054605E022464146384601F035
:10327000C4FD05460DB90020ECE70120EAE72DE981
:10328000F0410646884617461C4606B914B9042084
:10329000BDE8F081012C05D14146384601F0DEFD44
:1032A000054605E022464146384601F01EFE054629
:1032B0000DB90020ECE70120EAE7F0B599B0064629
:1032C0000F46144616B1042019B0F0BD37B1012FD6
:1032D0000BD0032F04D0042F20D115E000251FE0D0
:1032E0004FF40070208000251AE001A801F01CFFB7
:1032F00008B1012507E017982060206808B1002078
:1033000000E0042005460BE0D4E9000101F054FE82
:1033100008B9002000E00420054601E0042500BFB4
:1033200000BF2846D0E700207047000070B5034674
:103330000C4603E014F8015B03F8015B151EA2F1D3
:103340000102F7D170BD30B5034601E003F8011B5F
:10335000141EA2F10102F9D130BDF0B503461C469E
:103360000D46002000BF161EA2F1010207D014F87E
:10337000017B15F801CBA7EB0C06301EF3D0F0BD96
:10338000024600E0521C107810B110788842F9D142
:10339000107870472DE9F04104460D46E66AAE42CA
:1033A0002FD0207908B360780123324604F1300130
:1033B000FFF765FF10B10120BDE8F081002020710A
:1033C000D4E907100844B0420FD9E7780AE0E06971
:1033D000064460780123324604F13001FFF74FFFC5
:1033E000781EC7B2012FF2DC00BF55B1607801230F
:1033F0002A4604F13001FFF724FF08B10120DBE782
:10340000E5620020D8E770B5044600212046FFF7AA
:10341000C1FF0546002D59D1207803284FD160798E
:1034200000284CD00020E0624FF40072002104F12B
:103430003000FFF788FF552184F82E12AA2184F866
:103440002F12522084F83000522131200155612181
:1034500032200155412133200155722184F8141284
:1034600084F81512412184F81612612184F817128C
:10347000217C84F81812208A010A84F81912206924
:10348000010C84F81A122069010E84F81B12217BAA
:1034900084F81C12A089010A84F81D12E068010C4E
:1034A00084F81E12E068010E84F81F126078012370
:1034B00004F130016269FFF7E2FE0020607160787C
:1034C00000221146FFF7F9FE00B10125284670BD24
:1034D0000246891E9069801E884201D800207047EC
:1034E0009378906A01FB0300F9E72DE9F041054666
:1034F0000C46022C02D3A869A04202D80120BDE8E4
:10350000F0812878012804D002282CD003285AD131
:103510003DE0274607EB5707286A00EB572128466E
:10352000FFF738FF00B14EE0C7F3080105F13000A6
:1035300010F801807F1C286A00EB57212846FFF70E
:1035400029FF00B13FE0C7F3080105F13000405CFE
:1035500048EA002804F0010010B14FEA1810CEE745
:10356000C8F30B00CBE7286A00EB14212846FFF7CD
:1035700011FF00B127E040F2FF1000EA440105F11D
:1035800030000E183078717840EA0120B7E7286AD9
:1035900000EBD4112846FFF7FDFE00B113E040F226
:1035A000FF1000EA840105F130000E18F0780006E3
:1035B000B17840EA0140717840EA0120317808434F
:1035C00020F070409BE700BF4FF0FF3097E72DE9F8
:1035D000F04705460E461746022E02D3A869B042B0
:1035E00002D84FF002088AE02878012804D0022887
:1035F00041D003287DD154E0B14609EB5909286A2E
:1036000000EB59212846FFF7C5FE8046B8F1000FB0
:1036100000D071E0C9F3080105F130000C1806F084
:10362000010020B1F9B2207861F31F1000E03846A4
:10363000207009F1010901202871286A00EB592145
:103640002846FFF7A7FE8046B8F1000F00D053E0F0
:10365000C9F3080105F130000C1806F0010010B1A3
:10366000C7F3071005E0207800F0F000C7F303214E
:103670000843207040E0286A00EB16212846FFF737
:1036800089FE8046B8F1000F00D035E040F2FF100F
:1036900000EA460105F130000C182770380A607006
:1036A0002AE0286A00EBD6112846FFF773FE804611
:1036B000B8F1000F00D01FE040F2FF1000EA8601D1
:1036C00005F130000C18E0780006A17840EA0140CE
:1036D000617840EA01202178084300F070400743F8
:1036E0002770380A6070380CA070380EE07003E064
:1036F000FFE74FF0020800BF00BF012028714046DD
:10370000BDE8F0872DE9F04104460E46022E02D3B3
:10371000A069B04201D8022725E000271FE031460A
:103720002046FFF7E2FE054605B91BE0012D01D159
:10373000022717E0681C08B9012713E00022314670
:103740002046FFF744FF074607B10BE02069401C05
:1037500020B12069401C2061012060712E46A069C3
:10376000B042DCD800BF3846BDE8F0812DE9F04713
:1037700004468946B9F1000F06D1E76817B1A06980
:10378000B84211D801270FE049462046FFF7ADFEA9
:103790000646022E02D20120BDE8F087A069B042A1
:1037A00001D93046F8E74F463D4600BF6D1CA06981
:1037B000A84204D80225BD4201D90020ECE72946E1
:1037C0002046FFF792FE064606B909E0701C08B1D4
:1037D000012E01D13046DFE7BD42E7D10020DBE713
:1037E00000BF6FF0704229462046FFF7F0FE80468A
:1037F000B8F1000F08D1B9F1000F05D02A464946AB
:103800002046FFF7E4FE8046B8F1000F09D1E560DD
:103810002069401C68B12069401E20610120607150
:1038200007E0B8F1010F02D14FF0FF3000E00120B6
:1038300005462846B0E72DE9F04104460E46E680ED
:10384000A568012D03D020688069A84202D8022013
:10385000BDE8F0812DB920680078032801D12068E7
:10386000456A65B9E56020680089B04201DC022044
:10387000EEE72068406A00EB1610206120E0206827
:103880008078070112E029462068FFF72EFE0546E2
:10389000681C08B90120DBE7022D03D3206880698A
:1038A000A84201D80220D3E7F01B86B2BE42EADA72
:1038B000E56029462068FFF70BFE00EB161020613B
:1038C0002068303006F00F0100EB411060610020ED
:1038D000BEE72DE9F0410446884600BFE088401C61
:1038E00086B20EB1206910B90420BDE8F08106F05F
:1038F0000F0000286FD12069401C2061E06828B9C2
:1039000020680089B04266DC0420EEE720688078F9
:10391000401E00EA161000285DD1E1682068FFF71C
:10392000E4FD0546012D01D80220DEE7681C08B938
:103930000120DAE720688069A84246D8B8F1000F74
:1039400001D10420D1E7E1682068FFF70FFF0546A9
:103950000DB90720C9E7012D01D10220C5E7681C78
:1039600008B90120C1E700212068FFF713FD08B165
:103970000120BAE7216801F130004FF40072002104
:10398000FFF7E1FC29462068FFF7A2FD2168C86225
:10399000002710E001202168087100212068FFF74E
:1039A000F9FC08B10120A0E72068C06A401C21682A
:1039B000C862781CC7B220688078B842EADC206808
:1039C000C06AC01B2168C86200BFE5602946206844
:1039D000FFF77EFD2061E6802068303006F00F01A1
:1039E00000EB4110606100207FE72DE9F0410446C3
:1039F00000212046FFF71FFF054615B12846BDE808
:103A0000F08100BF21692068FFF7C4FC054605B1BD
:103A100016E0666937780FB9042511E0F07A00F0F6
:103A2000080030B90B223046A169FFF796FC00B9B7
:103A300006E000212046FFF74CFF0546002DE1D0AF
:103A400000BF2846DBE72DE9F0410446002120466F
:103A5000FFF7F1FE0546ADB900BF21692068FFF709
:103A600099FC054605B10CE060690678E52E00D0AA
:103A700006B906E001212046FFF72BFF0546002D81
:103A8000EBD000BF9DB921692068FFF783FC054694
:103A90006DB96769202200213846FFF754FC0B22DC
:103AA0003846A169FFF742FC0120216808712846C9
:103AB000BDE8F0812DE9F35F8A46DAF8007000E096
:103AC0007F1C38782F28FBD038785C28F8D00098F5
:103AD00086690B2220213046FFF735FC0025A946D8
:103AE000AB464FF0080800BF58460BF1010B3C5C99
:103AF000202C03DD2F2C01D05C2C00D134E02E2CA7
:103B000001D0C1450ED3B8F1080F01D12E2C02D03F
:103B10000620BDE8FC9F4FF008094FF00B08A806EF
:103B2000050EE1E7802C03DB45F003050620F0E7F6
:103B30002146FBA0FFF724FC08B10620E9E7412C51
:103B400004DB5A2C02DC45F0020508E0612C06DBA0
:103B50007A2C04DC45F00105A4F12000C4B24846EB
:103B600009F101093454BFE700BF07EB0B00CAF8A5
:103B70000000202C01DC042000E000200446B9F104
:103B8000000F01D10620C4E73078E52801D10520D7
:103B90003070B8F1080F01D1A806050E05F003003A
:103BA000012801D144F0100405F00C00042801D1D3
:103BB00044F00804F4720020ABE72DE9F341044619
:103BC000019800782F2803D0019800785C2802D152
:103BD0000198401C01900020A060019800782028E6
:103BE00007D200212046FFF726FE0646002060612E
:103BF0002FE000BF01A92046FFF75CFF064606B193
:103C000026E02046FFF7F1FE0646A069C77A46B1D6
:103C1000042E00D01CE000BF07F0040000B9052608
:103C200016E007F0040000B112E06569E87A00F0E0
:103C3000100008B905260BE0A97EE87E41EA0021C4
:103C40002A7D687D42EA002041EA0040A060D1E779
:103C500000BF3046BDE8FC8170B504460D46607873
:103C600001232A4604F13001FFF7EBFA08B10320E3
:103C700070BD94F82E1294F82F0241EA00204AF603
:103C80005521884201D00220F2E794F8690001062C
:103C900094F8680041EA004194F8670041EA002086
:103CA00094F86610084320F07F40A149884201D172
:103CB0000020DDE794F88500010694F8840041EACD
:103CC000004194F8830041EA002094F882100843F0
:103CD00020F07F409649884201D10020C8E70120AA
:103CE000C6E72DE9F74F88B0089800680190019861
:103CF000007830380790079809280AD8019840784A
:103D00003A2806D10198801C019008990198086012
:103D100001E000200790079818B10B200BB0BDE818
:103D2000F08F8449079851F82040099804600CB935
:103D30000C20F3E7207878B16078FFF77CFA8046B2
:103D400008F0010040B90A9820B108F0040008B159
:103D50000A20E3E70020E1E7002020700798607068
:103D60006078FFF757FA804608F0010008B1032099
:103D7000D4E70A9820B108F0040008B10A20CDE782
:103D80004FF0000B59462046FFF766FF054600BF7F
:103D9000012D21D14FF0000ABAF1000F03D0AAF192
:103DA000010000F0FF0A4FF4DF7000EB0A1104F18C
:103DB00030000F18387978B1F87A0106B87A41EAFC
:103DC0000041787A41EA0020397A40EA010B5946ED
:103DD0002046FFF741FF0546032D01D101209DE755
:103DE0000DB10D209AE73B20015D94F83C0041EABB
:103DF0000020B0F5007F01D00D208FE74620015D47
:103E000094F8470041EA0029B9F1000F0ED194F867
:103E10005700010694F8560041EA004194F8550015
:103E200041EA002094F8541040EA0109C4F81C90BB
:103E30004020065DE670012E03D0022E01D00D2039
:103E40006CE709FB06F93D20005D0646A07016B13F
:103E5000701E304008B10D2060E74120015D94F8EC
:103E6000420041EA00202081207A00F00F0008B1D2
:103E70000D2053E74320015D94F8440041EA0020FF
:103E80000690069870B994F85300010694F8520011
:103E900041EA004194F8510041EA002094F85010A2
:103EA000084306903E20015D94F83F0041EA00205F
:103EB0000290029808B90D2030E702984844218901
:103EC00000EB11100590DDE90501814201D20D20C2
:103ED00024E7DDE90510401AA178B0FBF1F0049069
:103EE000049808B90D2019E7012540F6F6710498E9
:103EF000884200D302254FF6F6710498884200D319
:103F000003250498801CA06105985844A06202987B
:103F100058442062032D22D1208968B10D20FDE68E
:103F2000222A2B2C3A3B3C3D3E3F5B5D7C7F0000D0
:103F3000464154004002002094F85F00010694F8C6
:103F40005E0041EA004194F85D0041EA002094F8E7
:103F50005C1008436062A0698000039014E020892F
:103F600008B90D20DAE6206A48446062022D02D1C9
:103F7000A069400007E0207E00F00100A16901EB8C
:103F8000410100EB51000390E169039800F2FF103A
:103F9000B1EB502F01D20D20C0E64FF0FF30206171
:103FA0000020E060032D5CD1607194F8601094F8FB
:103FB000610041EA0020584460616078012304F107
:103FC00030016269FFF73DF9F0BB94F82E1294F8C6
:103FD0002F0241EA00204AF65521884241D1332080
:103FE000005D01063220005D41EA00413120005DA4
:103FF00041EA002094F830100843F949884230D152
:1040000094F81702010694F8160241EA004194F868
:10401000150241EA002094F814120843F14988423D
:104020001FD194F81F02010694F81E0241EA0041D4
:1040300094F81D0241EA002094F81C120843E06045
:1040400094F81B02010600E00BE094F81A0241EA22
:10405000004194F8190241EA002094F8181208432C
:1040600020612570E0480088401C80B2DE4908804D
:10407000E0800020E062207100BF4FE670B504468A
:104080000D4624B1207810B1E088A84201D0092063
:1040900070BD6078FFF7CFF800F0010008B1032091
:1040A000F6E70020F4E70246012A01DB0B20704707
:1040B000CE4850F822300BB10020187009B1002012
:1040C0000870CA4840F822100020F0E72DE9F743B5
:1040D0008AB0054616460020286006F01F0626F026
:1040E000010203A90BA8FFF7FCFD0746CDF824D079
:1040F00027B903A80B99FFF760FD0746089C0FB985
:1041000004B9062706F01C00002858D04FB1042F30
:1041100003D103A8FFF797FC074646F00806089C62
:1041200009E0E07A00F0110008B1072703E006F08B
:10413000040000B10827002F40D106F00800002835
:104140003CD0FFF7F0F8804684F80E804FEA182143
:10415000E1734FEA184121744FEA1861617400203D
:10416000E072207700216177A177E177A17EE07E80
:1041700041EA0021227D607D42EA002041EA0049B7
:104180000020A0760021E176207561750120039959
:104190000871B9F1000F11D00398D0F82C8049466E
:1041A0000398FFF7AFFA074647B9A9F10100039951
:1041B000C86041460398FFF7EDF807460EE06FB977
:1041C000E07A00F0100008B1042707E006F00200D2
:1041D00020B1E07A00F0010000B1072747B906F0EE
:1041E000080008B146F020060398C06AE8612C6216
:1041F000F7B9AE71A17EE07E41EA0021227D607DAB
:1042000042EA002041EA00402861E07F0106A07FE9
:1042100041EA0041607F41EA0020217F0843E860D5
:104220000020A860A861039828600398C088A8802F
:1042300038460DB0BDE8F0832DE9FF4F83B004464A
:1042400015469846049800900020C8F80000A18800
:104250002068FFF713FF0290029818B1029807B088
:10426000BDE8F08FA07900F0800008B10220F6E7E9
:10427000A07900F0010008B90720F0E7D4E90210A6
:10428000401A01900198854200D9019D86E020895D
:10429000C0F30800002857D120688078401EA1682C
:1042A00000EA5120C7B2EFB9A06810B9D4F810B035
:1042B00004E061692068FFF718F98346BBF1020F3B
:1042C00005D2A07940F08000A0710220C7E70BF171
:1042D000010028B9A07940F08000A0710120BEE75C
:1042E000C4F814B061692068FFF7F2F88146B9F1AB
:1042F000000F05D1A07940F08000A0710220AEE748
:10430000B9444FEA552ABAF1000F1BD007EB0A0057
:1043100021688978884203D920688078A0EB070A51
:104320000AF0FF03216848784A460099FEF789FFA2
:1043300028B1A07940F08000A07101208FE74FEAFA
:104340004A261FE0C4F818902089C0F30800C0F581
:104350000076AE4200D92E46A1692068FFF71AF810
:1043600028B1A07940F08000A071012077E7206893
:1043700030302289C2F30802811832460098FEF7D5
:10438000D5FF00BF009830440090A0683044A06082
:10439000D8F800003044C8F80000AD1B002D7FF4B1
:1043A00076AF00205BE72DE9FF4F83B0044615464A
:1043B0009B46049801900020CBF80000A18820685B
:1043C000FFF75CFE0290029818B1029807B0BDE8B2
:1043D000F08FA07900F0800050B10220F6E70000D5
:1043E0005252614172724161440200204002002039
:1043F000A07900F0020008B90720E7E7E068284448
:10440000E168884200D20025CDE02089C0F3080091
:10441000002870D120688078401EA16800EA5120F1
:1044200000F0FF0ABAF1000F2AD1A06858B9D4F8F9
:104430001080B8F1000F0BD100212068FFF796F92A
:104440008046206104E061692068FFF78FF98046AB
:10445000B8F1000F00D1A9E0B8F1010F05D1A079A2
:1044600040F08000A0710220B0E708F1010028B9F7
:10447000A07940F08000A0710120A7E7C4F8148063
:104480002068C06AA16988420AD100212068FEF72D
:1044900081FF28B1A07940F08000A071012095E74C
:1044A00061692068FFF714F806462EB9A07940F03C
:1044B0008000A071022089E756444FEA5529B9F1DE
:1044C000000F31D00AEB090021688978884203D9AE
:1044D00020688078A0EB0A0909F0FF03216848787A
:1044E00032460199FEF7CBFE30B1A07940F0800052
:1044F000A07101206AE729E02068C06A801B484556
:104500000FD22268D26A921B019B03EB42212268E0
:1045100002F130004FF40072FEF708FF002021681E
:1045200008714FEA492732E0D4E9020188420CD3EE
:1045300000212068FEF72EFF28B1A07940F080000E
:10454000A071012042E72068C662A6612089C0F3FD
:104550000800C0F50077AF4200D92F46A169206856
:10456000FEF718FF28B1A07940F08000A07101206B
:104570002CE7216830312289C2F3080288183A46B4
:104580000199FEF7D3FE01202168087100BF019850
:1045900038440190A0683844A060DBF8000038443B
:1045A000CBF80000ED1B002D7FF42FAF00BFD4E946
:1045B0000201884201D9A068E060A07940F02000A3
:1045C000A071002002E72DE9F0410446A18820688F
:1045D000FFF754FD0746002F3BD1A07900F02000E3
:1045E000002836D0E1692068FEF7D4FE0746002F88
:1045F0002FD1256AE87A40F02000E872207B2877E6
:10460000A089010A6977E068010CA977E068010ECA
:10461000E977207CA876208A010AE9762069000CD7
:1046200028752069010E6975FEF77DFE0646AE7598
:10463000310AE975310C2976310E6976A07920F0BE
:104640002000A0710120216808712068FEF7DBFEC0
:1046500007463846BDE8F08170B504462046FFF7AE
:10466000B2FF05460DB900202060284670BD00004D
:104670002DE9F04105460C4617464FF4967805F0B3
:104680003F0141F04000FEF7A9FD200EFEF7A6FD18
:10469000C4F30740FEF7A2FDC4F30720FEF79EFD1A
:1046A000E0B2FEF79BFD47F00100FEF797FD0C2DF1
:1046B00002D1FF20FEF792FD00BFFF20FEF78EFD26
:1046C000C6B206F0800030B1B8F10000A8F10101D7
:1046D0001FFA81F8F1DC3046BDE8F08110B50446E0
:1046E000FF20FEF77BFDE070FF20FEF777FDA07056
:1046F000FF20FEF773FD6070FF20FEF76FFD207056
:1047000010BD10B50446FF2221461020FFF7B0FF70
:1047100010BD10B54FF4967406E0FF20FEF75EFD65
:10472000FF2801D1002010BD201EA4F101018CB290
:10473000F3DCFF20F7E770B54FF4FA6500BFFF2008
:10474000FEF74CFDC4B2FF2C04D1281EA5F10101D7
:104750008DB2F4DC204670BD10B5FE4C06E0FF20A3
:10476000FEF73CFDFF2801D1002010BD201EA4F162
:104770000104F4D1FF20F8E710B5F64C06E0FF2065
:10478000FEF72CFDFF2801D1002010BD201EA4F152
:104790000104F4D1FF20F8E710B54FF48071EE4822
:1047A000FBF7DDFF10BD10B54FF48071EA48FBF751
:1047B000D4FFFF20FEF712FD10BD38B50020009099
:1047C000FFF7EAFF4FF4967500BF952200210846D7
:1047D000FFF74EFF0446012C04D0281EA5F101016D
:1047E0008DB2F2DC012C01D0FF2038BD0220DB4964
:1047F0000870FFF78EFF04464FF4967500BF8722BE
:104800004FF4D5710820FFF733FF044604F004008D
:1048100018B10120D14908700DE06846FFF75EFF2E
:10482000009880B2B0F5D57F00D104E0281EA5F134
:1048300001018DB2E3DC00BF0DB9FF20D5E7FFF722
:1048400068FF044644F6206500BF6522002137203A
:10485000FFF70EFF0446012C03D00020BF4908706B
:104860001CE0FFF756FF0446BC480078012806D13B
:10487000FF2200212920FFF7FBFE044606E07722F5
:104880004FF080412920FFF7F3FE044604F00100B9
:1048900020B1281EA5F101018DB2D6DC00BFAF48C2
:1048A0000078012805D104F0010010B10020AB49C7
:1048B0000870FFF72EFF0446A848007898B944F620
:1048C000206500BFFF2200210120FFF7D1FE044632
:1048D00004F0010020B1281EA5F101018DB2F1DC28
:1048E000DDB9FF2081E79D480078022815D10DB978
:1048F000FF207AE7FF2200213A20FFF7B9FE0446A5
:104900005CB96846FFF7EAFE009800F0804008B105
:10491000032000E0022091490870FFF7FAFE0446E8
:10492000002062E72DE9F04105460E460024FFF71E
:1049300002FF0746FF2F1AD02F55285DFE2803D10E
:10494000FF20FEF74BFC2855012405E0FF20FEF771
:1049500045FC2855601C84B2B442F7DBFF20FEF70B
:104960003DFCFF20FEF73AFC0020BDE8F081FF206F
:10497000FBE77FB50446FFF7CCFE054615B1FF20E7
:1049800004B070BDFF2200210920FFF771FE05462B
:104990000DB1FF20F4E710216846FFF7C3FF05467D
:1049A0009DF80000800920709DF80000C0F383008E
:1049B00060709DF8000000F00300A0709DF80100F9
:1049C000E0709DF8020020719DF8030060719DF871
:1049D00004000001E080E0889DF8051040EA111015
:1049E000E0809DF8050000F00F0020729DF80600A1
:1049F000C00960729DF80600C0F38010A0729DF897
:104A00000600C0F34010E0729DF80600C0F30010ED
:104A100020739DF80600C0F381006073207878BB96
:104A20009DF806008007000D20619DF807102069A1
:104A300040EA810020619DF80810206940EA911049
:104A400020619DF80800C0F3C20020759DF80800A1
:104A500000F0070060759DF809004009A0759DF8F9
:104A60000900C0F38200E0759DF809008007400F3F
:104A70002076207E9DF80A1040EAD11020761FE0B3
:104A8000FFE79DF806008007000F6076607E9DF8C6
:104A9000071040EA911060769DF807008006800AB2
:104AA00020619DF80810206940EA012020619DF8EE
:104AB00009102069084320619DF80A00C009A0760A
:104AC0009DF80A00C0F3801004F81B0F9DF80A003F
:104AD0008006400E607060789DF80B1040EAD1109F
:104AE00060709DF80B0000F07F00A0709DF80C0036
:104AF000C009E0709DF80C00C0F3411020719DF8D2
:104B00000C00C0F3820060719DF80C008007000F5C
:104B1000A071A0799DF80D1040EA9110A0719DF848
:104B20000D00C0F34010E0719DF80D0000F01E0074
:104B300020729DF80D0000F0010060729DF80E00DB
:104B4000C009A0729DF80E00C0F38010E0729DF8BD
:104B50000E0005E040420F00001001404602002018
:104B6000C0F3401020739DF80E00C0F30010607376
:104B70009DF80E00C0F38100A0739DF80E0000F0B8
:104B80000300E0739DF80F00400820749DF80F00AB
:104B900000F0010060741B3C2846F1E67FB5044636
:104BA000FFF7B7FD054615B1FF2004B070BDFF2229
:104BB00000210A20FFF75CFD05460DB1FF20F4E758
:104BC00010216846FFF7AEFE05469DF800002070F4
:104BD0009DF801000002608060889DF80210084383
:104BE00060809DF80300000660609DF80410606816
:104BF00040EA014060609DF80510606840EA0120CD
:104C000060609DF806106068084360609DF80700CA
:104C100020729DF8080060729DF809000006E060AF
:104C20009DF80A10E06840EA0140E0609DF80B1032
:104C3000E06840EA0120E0609DF80C10E06808435D
:104C4000E060207C9DF80D1040EA111020749DF862
:104C50000D000007000D6082608A9DF80E10084369
:104C600060829DF80F00400820750120607528467D
:104C70009BE77CB50446F848007808B904207CBD61
:104C8000FFF747FD05460DB1FF20F8E7652200213B
:104C90003720FFF7EDFC05462DB9FF220021332018
:104CA000FFF7E6FC05460DB1FF20E8E7082168465E
:104CB000FFF738FE05469DF80000000920709DF8BA
:104CC000000000F00F0060709DF80100C009A070A6
:104CD0009DF80100C0F30210E0709DF8010000F0A3
:104CE0000F0020719DF80200C00960719DF802005C
:104CF000C0F3C300A0719DF802004007C00D2081E1
:104D000020899DF8031040EA910020819DF803005E
:104D1000C0F34000A0729DF8030000F00100E072B3
:104D20009DF804000006E0609DF80510E06840EA88
:104D30000140E0609DF80610E06840EA0120E06074
:104D40009DF80710E0680843E060284697E70120D7
:104D50007047704738B50025FFF7F9FF08B9FF2005
:104D600038BD4FF48070ADF8000010208DF80300BE
:104D700003208DF802006946B848FBF73AFC4FF46F
:104D80008071B648FBF7E9FC02E0FF20FEF726FA47
:104D900028466D1C40F6C4118842F6D3FFF70DFD7E
:104DA000044644B9AC480078032804D04FF400709E
:104DB000FFF7A7FC0446FFF7F6FC2046D0E770B5E6
:104DC00004460D46A4480078032800D06402FFF78B
:104DD000E3FCFFF79EFC0646FF2221461120FFF769
:104DE00047FC06462EB94FF400712846FFF79AFD9E
:104DF0000646FFF7D8FC304670BD2DE9F041044669
:104E00000D46174694480078032800D06402FFF747
:104E1000C3FCFFF77EFC0646FF2221461220FFF767
:104E200027FC0646AEB909E04FF400712846FFF7AB
:104E300079FD064606B105E005F50075381EA7F1B7
:104E40000107F1D100BFFF2200210C20FFF710FC69
:104E50000646FFF7A8FC3046BDE8F0812DE9F04199
:104E600004460D464FF400787B480078032800D0B4
:104E70006402FFF791FCFFF74CFC0646FF22214637
:104E80001820FFF7F5FB064646BBFF20FEF7A6F904
:104E9000FF20FEF7A3F9FF20FEF7A0F9FE20FEF7A2
:104EA0009DF903E015F8010BFEF798F9B8F1000041
:104EB000A8F101011FFA81F8F4DCFF20FEF78EF95A
:104EC000FF20FEF78BF9FF20FEF788F900F00E07B0
:104ED00007F0040018B1FFF73FFC064600E0FF268C
:104EE000FFF761FC3046BDE8F0812DE9F04705464B
:104EF0000E4617464FF4007957480078032800D033
:104F00006D02FFF749FCFFF704FC044652480078A5
:104F100058B1FF2239461720FFF7AAFB044624B1F7
:104F2000FFF741FC2046BDE8F087FF222946192003
:104F3000FFF79EFB0446002C3AD1FF20FEF74EF906
:104F4000FF20FEF74BF9FF20FEF748F921E0FC2097
:104F5000FEF744F903E016F8010BFEF73FF9B9F14B
:104F60000000A9F101011FFA81F9F4DCFF20FEF72E
:104F700035F9FF20FEF732F9FF20FEF72FF900F098
:104F80000E0808F0040018B1FFF7E6FB044600E045
:104F9000FF24381EA7F1010701D0FF2CD7D1FD2037
:104FA000FEF71CF9FF20FEF719F9FFF7B2FB0446E4
:104FB000FFF7F9FB2046B6E770B505460E462648D2
:104FC000007808B9042070BD23480078032801D078
:104FD0006D027602FFF7E0FBFFF79BFB0446FF2222
:104FE00029462020FFF744FB044684B9FF223146BE
:104FF0002120FFF73DFB04464CB9FF22002126206B
:10500000FFF736FB044614B9FFF7B6FB0446FFF77B
:10501000CAFB2046D7E730B591B004460E48007869
:1050200010B9042011B030BDFFF7B6FBFFF771FBDC
:1050300005460DB1FF20F5E7652200213720FFF777
:1050400017FB05462DB9FF2200210D20FFF710FBAD
:1050500005462DB1FF20E5E7460200200010014083
:10506000402101A8FFF75EFC0546FFF79CFB9DF879
:105070000400800920709DF80400C0F340106070A7
:105080009DF80400C006C00C608060889DF8051083
:10509000084360809DF806000002A080A0889DF86B
:1050A00007100843A0809DF808000006A0609DF846
:1050B0000910A06840EA0140A0609DF80A10A068AD
:1050C00040EA0120A0609DF80B10A0680843A06092
:1050D0009DF80C0020739DF80D0060739DF80E0084
:1050E0000009A0739DF80E0000F00F00E0739DF81A
:1050F0000F0000022082208A9DF8101008432082B1
:105100009DF811008008A0749DF8110000F00300C4
:10511000E0749DF81200000920759DF8120000F05F
:105120000F00607528467DE770B50446FFF734FB35
:105130002046FFF71EFC054625B904F13000FFF7B5
:105140002DFD05463DB9DE48007820B104F1480048
:10515000FFF78FFD0546FFF726FB1DBB207810BB30
:105160002069401CA065217E891C01228A40A06D17
:105170005043A065217A01208840E065207A0A2802
:1051800007DD217A0A3901228A40A06D5043A065CB
:1051900014E0207AC0F10A0201209040A16DB1FB19
:1051A000F0F0A0650AE02069401CA065217A01208A
:1051B0008840E065D4E916014843A065284670BDE3
:1051C0007CB50446207808B9012000E0002005469F
:1051D0001DB1BCA003F0B0F802E0BFA003F0ACF832
:1051E000C1A0A16D03F0A8F8C6A0E16D03F0A4F87A
:1051F000CCA003F0A1F894F83010D5A003F09CF8EF
:105200003220025D94F83310D7A003F095F83820CF
:10521000005D3421095DCDE9001094F8353094F833
:10522000362094F83710D8A003F086F83920005DB6
:1052300000F00F023920005D0109DAA003F07CF8CC
:10524000DFA0E16B03F078F84220005D00F00F0270
:105250004220005BC0F3071000F5FA61E0A003F004
:105260006BF84420005D00F07F01E7A003F064F8D4
:10527000E9A003F061F8002D71D0F1A003F05CF813
:10528000E078C0F3C300102849D2DFE800F0080C32
:105290001014181C2024282C3034383C4044EFA033
:1052A00003F04AF83CE0EEA003F046F838E0EDA049
:1052B00003F042F834E0ECA003F03EF830E0EBA05D
:1052C00003F03AF82CE0EAA003F036F828E0E9A071
:1052D00003F032F824E0E8A003F02EF820E0E7A085
:1052E00003F02AF81CE0E6A003F026F818E0E5A099
:1052F00003F022F814E0E4A003F01EF810E0E3A0AD
:1053000003F01AF80CE0E2A003F016F808E0E1A0C0
:1053100003F012F804E0E0A003F00EF800E000BF94
:1053200000BFDEA003F008F8E07800F007000828CE
:1053300026D2DFE800F004080C1015191D21D9A0B1
:1053400002F0FAFF1DE0D8A002F0F6FF19E0D7A0A6
:1053500002F0F2FF15E0D6A002F0EEFF11E015E03A
:10536000D4A002F0E9FF0CE0D3A002F0E5FF08E0D2
:10537000D2A002F0E1FF04E0D1A002F0DDFF00E0E6
:1053800000BF00BF2179CFA002F0D6FF6179D8A07D
:1053900002F0D2FF60790B280ED02B2810D03228D3
:1053A00002D05A2810D103E0D9A002F0C5FF0FE0C7
:1053B000DAA002F0C1FF0BE0DBA002F0BDFF07E0C6
:1053C000DCA002F0B9FF03E046A002F0B5FF00BF89
:1053D00000BFDBA002F0B0FFA07900F0010010B127
:1053E000DDA002F0A9FFA07900F0020010B1DDA05D
:1053F00002F0A2FFA07900F0040010B1DAA002F0E0
:105400009BFFA07900F0080010B1DAA002F094FF31
:10541000A07900F0100010B1D7A002F08DFFA079A4
:1054200000F0200010B1D7A002F086FFA07900F0B4
:10543000400010B1D6A002F07FFFA07900F08000FC
:1054400010B1D6A002F078FFE08800F4807010B1AF
:10545000D5A002F071FFE08800F4007010B1D4A074
:1054600002F06AFFE08800F4806010B1D2A002F080
:1054700063FFE08800F4006010B1D2A002F05CFF8E
:1054800018A002F059FFA5B1237A012000FA03F217
:105490001946CDA002F050FF617AD7A002F04CFF70
:1054A000A17ADFA002F048FFE17AE5A002F044FF14
:1054B00007E2EBA002F040FFF5A002F03DFFFDE1A6
:1054C000460200205344534320287631206F722037
:1054D0007632290A0000000053444843206F7220AE
:1054E000534458430A0000004361726420436170D2
:1054F0006163697479203A20256C75204B62797458
:1055000065730A004361726420426C6F636B2053C1
:10551000697A65203A20256C752062797465730A72
:10552000000000000A20202020436172642069648A
:10553000656E74696669636174696F6E2072656710
:1055400069737465722028434944290A00000000E9
:105550004D616E7566616374757265722049442091
:105560003A2025640A0000004F454D202F2041704D
:10557000706C69636174696F6E204944203A20251C
:105580006325630A0000000050726F647563742025
:105590004E616D65203A20256325632563256325CB
:1055A000630A000050726F647563742052657669F7
:1055B00073696F6E203A2025642E25640A0000006E
:1055C00050726F647563742053657269616C204E0C
:1055D000756D626572203A20256C750A0000000026
:1055E0004D616E75666163747572696E67204461A2
:1055F00074652028595959592D4D4D29203A202597
:10560000642D25640A00000043494420435243208E
:105610003A2025640A0000000A20202020436172FD
:10562000642D7370656369666963206461746120C9
:1056300072656769737465722028435344290A00B0
:105640004461746120726561642061636365737392
:105650002D74696D65203A2000000000302E300066
:10566000312E3000312E3200312E3300312E3500F4
:10567000322E3000322E3500332E3000332E3500DE
:10568000342E3000342E3500352E3000352E3500C6
:10569000362E3000372E3000382E30002078203162
:1056A000000000006E000000306E000030306E0020
:1056B0007500000030750000303075006D0000008E
:1056C000306D0000730A446174612072656164206A
:1056D0006163636573732D74696D6520696E204322
:1056E0004C4B206379636C6573203A2025640A0073
:1056F0004D61782E2062757320636C6F636B20663A
:1057000072657175656E6379203A20257800000016
:10571000202832354D687A290A00000020283530CB
:105720004D687A290A00000020283130304D687A0F
:10573000290A000020283230304D687A290A0000FA
:105740000A4361726420636F6D6D616E6420636CE7
:105750006173736573203A00203028626173696356
:105760002900000020310000203228726561642980
:10577000000000002033000020342877726974652F
:10578000290000002035286572617365290000003A
:1057900020362870726F7465637429002037286C76
:1057A0006F636B29000000002038286170702900A9
:1057B000203928692F6F29002031302873776974C8
:1057C00063682900203131004D61782E20726561B7
:1057D00064206461746120626C6F636B206C656E21
:1057E000677468203A202564202820256420627987
:1057F00074657320290A00005061727469616C201D
:10580000626C6F636B7320666F72207265616420D7
:10581000616C6C6F776564203A2025640A00000093
:10582000577269746520626C6F636B206D69736178
:105830006C69676E6D656E74203A2025640A0000FD
:105840005265616420626C6F636B206D6973616C7B
:1058500069676E6D656E74203A2025640A00000049
:105860004D61782E207265616420646174612062EC
:105870006C6F636B206C656E677468203A20616C96
:1058800077617973203531322062797465730A004B
:105890005061727469616C20626C6F636B73206617
:1058A0006F72207265616420617265206E6F742072
:1058B000616C6C6F7765640A0000000095A002F0CF
:1058C0003BFD217B9FA002F037FDA4A0216902F0DF
:1058D00033FD002D6FD0ACA002F02EFD207D0828F6
:1058E00025D2DFE800F004080C1014181C20AEA02C
:1058F00002F022FD1CE0ADA002F01EFD18E0ACA0FD
:1059000002F01AFD14E0ABA002F016FD10E0AAA010
:1059100002F012FD0CE0A9A002F00EFD08E0A8A024
:1059200002F00AFD04E0A7A002F006FD00E000BFBF
:1059300000BFA5A002F000FD607D082825D2DFE8A9
:1059400000F004080C1014181C2097A002F0F4FCBE
:105950001CE096A002F0F0FC18E095A002F0ECFC30
:1059600014E094A002F0E8FC10E093A002F0E4FC44
:105970000CE092A002F0E0FC08E091A002F0DCFC58
:1059800004E090A002F0D8FC00E000BF00BF97A0A8
:1059900002F0D2FCA07D082826D2DFE800F004083F
:1059A0000D1115191D2181A002F0C6FC1DE080A07B
:1059B00002F0C2FC19E07AE07EA002F0BDFC14E027
:1059C0007DA002F0B9FC10E07CA002F0B5FC0CE078
:1059D0008FA002F0B1FC08E08EA002F0ADFC04E064
:1059E0008DA002F0A9FC00E000BF00BF8BA002F078
:1059F000A3FCE07D082825D2DFE800F004080C10A5
:105A000014181C2069A002F097FC1CE068A002F0AA
:105A100093FC18E067A002F08FFC14E066A002F08F
:105A20008BFC10E065A002F087FC0CE078A002F08F
:105A300083FC08E077A002F07FFC04E076A002F08F
:105A40007BFC00E000BF00BF217E7DA002F074FC63
:105A5000E07E20B9217F82A002F06EFC02E08CA0E3
:105A600002F06AFC14F81D1F96A002F065FC617834
:105A70009CA002F061FCE07800F03F02012000FAF7
:105A800002F1A1A002F058FC207900F00F020120E1
:105A900000FA02F1A6A002F04FFC6179ADA002F07D
:105AA0004BFC217A1D3CB5A002F046FC0EE078A02C
:105AB00002F042FCB7A002F03FFCBEA002F03CFCAA
:105AC000C2A002F039FCCCA002F036FC14F8261F6C
:105AD000D4A002F031FC6178D8A002F02DFCA178AE
