:020000040800F2
:1000000080450020A5010008A9010008AB010008F7
:10001000AD010008AF010008B101000800000000B8
:1000200000000000000000000000000001010008C6
:10003000B50100080000000045010008256C00081B
:10004000BB010008BB010008BB010008BB010008A0
:10005000BB010008BB010008BB010008BB01000890
:10006000BB010008BB010008BB010008BB01000880
:10007000BB010008BB010008BB010008BB01000870
:10008000BB010008BB010008BB010008BB01000860
:10009000BB010008BB010008BB010008BB01000850
:1000A000BB010008BB010008BB010008BB01000840
:1000B000D52E0008BB010008BB010008BB010008E9
:1000C000BB010008BB010008BB010008BB01000820
:1000D000BB010008CF3000083F310008BB01000819
:1000E000BB010008BB010008BB010008DFF80CD011
:1000F00006F0E8FE00480047B11D000880450020DA
:10010000204B19680868B0E8F00F80F30988BFF346
:100110006F8F4FF0000080F311884EF00D0E704786
:100120000000000006480068006880F3088862B696
:1001300061B6BFF34F8FBFF36F8F00DF00BF00BF0B
:1001400008ED00E0EFF30980BFF36F8F0D4B1A68E5
:1001500020E9F00F106008B54FF0BF0080F3118860
:1001600005F0A4FC4FF0000080F31188BDE80840C2
:1001700019680868B0E8F00F80F30988BFF36F8F43
:10018000704700BF40020020EFF311804FF0BF0125
:1001900081F31188704780F311887047EFF3058071
:1001A0007047000005480047FEE7FEE7FEE7FEE770
:1001B000FEE7FEE7FEE7FEE7FEE7FEE7ED000008EC
:1001C00010B50446C548204478B1B0F5806F16D00C
:1001D000B0F5744F1DD10121880300F076FE002197
:1001E0004FF4804000F071FE14E00121480400F05B
:1001F00079FE00214FF4003000F074FE0AE0012186
:10020000880400F06FFE00214FF4802000F06AFEA9
:1002100000E000BF00BF10BD2DE9F04385B00646E9
:100220000D460024A14600BF00BF348A4CF2FF00F7
:100230000440E888E9890843298A0843698A084311
:10024000A98A0843044334820024B4894EF6F3108B
:100250000440A88829890843A98908430443B48134
:100260000024B48A4FF6FF40044068890443B482F6
:1002700000BF684600F0A2FD9948864202D1DDF831
:100280000C9001E0DDF8089009EBC90000EB0910C3
:1002900029688900B0FBF1F76420B7FBF0F0040196
:1002A0002009642101FB1078322000EB0810B0FB1C
:1002B000F1F000F00F000443348105B0BDE8F08395
:1002C0004FF41651016000218180C180018141817C
:1002D0000C2181810021C18101824182818270478C
:1002E00021B1828942F40052828104E082894DF674
:1002F000FF731A4082817047F0B503460024002640
:1003000000250020C1F3421401F01F06012707FA5F
:1003100006F51846012C01D10C3004E0022C01D165
:10032000103000E014301AB107682F43076002E074
:100330000768AF430760F0BD1AB1838A0B4383821D
:1003400002E0838A8B4383827047028A4FF6F07300
:100350001A400282028A0A430282704782894FF25F
:10036000FF731A40828182890A438281704721B1DA
:10037000828942F00202828104E082894FF6FD7395
:100380001A4082817047028A4FF6DF731A40028258
:10039000028A0A430282704721B1028A42F48042F3
:1003A000028204E0028A4BF6FF731A400282704711
:1003B000C1F308028280704701468888C0F30800B4
:1003C0007047818941F0010181817047028BD2B26F
:1003D0000283028B42EA012202837047028B02F4FD
:1003E0007F420283028B0A430283704721B1828AD3
:1003F00042F02002828204E0828A4FF6DF731A40C4
:100400008282704721B1828A42F01002828204E027
:10041000828A4FF6EF731A408282704721B1828A36
:1004200042F00802828204E0828A4FF6F7731A4093
:1004300082827047828A4FF6FB731A408282828AD8
:100440000A438282704721B1828A42F0020282828C
:1004500004E0828A4FF6FD731A408282704702469A
:10046000002013880B400BB1012000E000207047F2
:1004700002888A430280704770B502460B4600240A
:10048000002100250020C3F3421503F01F010126BF
:1004900006FA01F1012D02D19689314006E0022DC4
:1004A00002D1168A314001E0968A31401C120126A1
:1004B00006FA04F41688344011B10CB1012000E0B2
:1004C000002070BD10B5002200230A12012404FA96
:1004D00002F304889C43048010BD000000BCFFBFF1
:1004E0000038014030BF704720BF704740BF7047A1
:1004F000BFF36F8F7047BFF34F8F7047BFF35F8FAE
:10050000704701DF7047EFF31480704780F3148861
:10051000BFF36F8F7047EFF30980704780F309884E
:100520007047EFF30880704780F30888704772B611
:10053000704762B6704771B6704761B6704780F316
:1005400011887047EFF31280704740BA704700BAC5
:100550007047000010B50446B449601A8C4220D0A0
:1005600006DCB348204450B1B0F5806F34D10FE0C1
:10057000B0F5806F1ED0B0F5006F2DD123E00121C2
:10058000042000F0A2FC0021042000F09EFC24E0E6
:100590000121082000F099FC0021082000F095FCC2
:1005A0001BE00121102000F090FC0021102000F041
:1005B0008CFC12E00121202000F087FC002120208B
:1005C00000F083FC09E00121402000F07EFC0021C6
:1005D000402000F07AFC00E000BF00BF10BD10B565
:1005E0000121084600F071FC0021012000F06DFCA3
:1005F00010BD2DE9F0410246002500260020002311
:100600000024002791F803C00CF00F0591F803C0F7
:100610000CF0100CBCF1000F03D091F802C04CEAB2
:10062000050591F800C0BCF1000F31D0146800201E
:100630002AE04FF0010C0CFA00F3B1F800C00CEA0C
:1006400003069E421FD183004FF00F0C0CFA03F7F4
:10065000BC4305FA03FC4CEA040491F803C0BCF166
:10066000280F05D14FF0010C0CFA00FCC2F814C0A1
:1006700091F803C0BCF1480F05D14FF0010C0CFA02
:1006800000FCC2F810C0401C0828D2D3146000241B
:10069000B1F800C0BCF1FF0F34DD546800202EE03B
:1006A00000F1080C4FF0010808FA0CF3B1F800C093
:1006B0000CEA03069E4221D183004FF00F0C0CFA86
:1006C00003F7BC4305FA03FC4CEA040491F803C0A9
:1006D000BCF1280F05D100F1080C08FA0CF8C2F89B
:1006E000148091F803C0BCF1480F07D100F1080C49
:1006F0004FF0010808FA0CF8C2F81080401C0828D6
:10070000CED35460BDE8F0814FF6FF710180022125
:1007100081700421C17070470246002093680B402D
:100720000BB1012000E0002070470146886880B2CC
:10073000704702460020D3680B400BB1012000E057
:10074000002070470146C86880B270470AB1016155
:1007500000E041617047C1607047016170474161CD
:1007600070474FF480320A438261816182618269FD
:1007700082697047024600202E4B18684FF680733E
:10078000184040EA021008432A4B186070472A4973
:10079000C861704770B50B46002200240021002577
:1007A000244E7168C0F3034582B200F40016B6F51A
:1007B000001F02D121F0E0610AE000F48016B6F5D6
:1007C000801F04D1032606FA05F4A14300E09143FB
:1007D00043B100F40016B6F5001F02D141EA024110
:1007E00000E01143134E716070BD30B500228B07DD
:1007F0001C0F0F2303FA04F20E4B08338C1053F82E
:10080000243093430B4C08348D1044F82530234694
:100810008C1053F824308C07240F00FA04F423437F
:10082000044C08348D1044F8253030BD00100140D0
:1008300000F8FEBF00000140000020420020411EE1
:10084000EF4A11604A0DEE498039C1F88420411EFB
:100850004FF0E022C2F880124A0DEA490A6000BF58
:1008600004E00022E84941F82020401C0B28F8D37E
:10087000704700204FF02061E44A11600021121DF2
:100880001160E349121D11600021121D1160121D3B
:10089000116000BF05E00022DC49143141F820203E
:1008A000401C0328F7D30021D84A20321160491E8A
:1008B000121D1160121D1160121D11607047D44984
:1008C0000143D24A083211607047F0B5002100227E
:1008D000002300250F24C678002E35D0CB4E0836D5
:1008E000366806F4E066C6F5E066310AC1F1040533
:1008F000CC40467806FA05F1867826403143090156
:100900000678B607F60EB140BF4E0778BF1056F80E
:1009100027200678B607F70EFF2606FA07F39A4354
:1009200019400A43B84E0778BF1046F827200678CA
:1009300006F01F070126BE4007787F11BF0007F1B0
:10094000E027C7F800610BE0067806F01F070126D4
:10095000BE40AB4F90F800C04FEA6C1C47F82C60CB
:10096000F0BD0021017041708170C170704710B5F9
:10097000FFF7DDFD10BD10B5FFF7DBFD10BD10B5B5
:10098000FFF7D9FD10BD10B5FFF7D7FD10BD10B5AD
:1009900004462001FFF7D3FD10BD10B5FFF7D2FDCF
:1009A00010BD9A480068C0F30930704710B5014681
:1009B0000020002201F01F04012303FA04F2904BEF
:1009C00080334C1153F824301340934201D101205D
:1009D00000E0002010BD8F490860704700F01F0242
:1009E00001219140874A121F431142F8231070479A
:1009F00086480068C0F30900704710B50146002022
:100A0000002201F01F04012303FA04F27D4B7C3322
:100A10004C1153F824301340934201D1012000E0DF
:100A2000002010BD7948001F006870477A4A02EA2A
:100A3000C112764B1B1D1A601A46126802431A60D7
:100A400070477348001D714908310860704770484D
:100A5000401C6E4908310860704739B16B4A0C324E
:100A600012680243694B0C331A6006E0674A0C3285
:100A700012688243654B0C331A60704710B5002230
:100A800000F01F04012303FA04F239B15F4B203355
:100A90001B6813435D4C2034236006E05B4B20331E
:100AA0001B689343594C2034236010BDF0B50346B6
:100AB0000C4615460020FF2200260021534F083720
:100AC0003F6807F4E067C7F5E067390AC1F1040041
:100AD000CA4004FA00F105EA02073943090103F0AC
:100AE000C0008009C3F30122D700B9404FEAC20C0D
:100AF000FF2707FA0CF6454F143757F82070B74315
:100B0000DFF808C10CF1140C4CF82070674657F858
:100B100020700F434CF82070F0BD10B50246002045
:100B200000230021910A01F00F01012404FA01F1D0
:100B3000364C2034246804EA01038B4201D10120A1
:100B400000E0002010BD002100F01F012F4A1268B4
:100B500001238B401A432D4B1A60704710B50021BA
:100B600000F01F01294A12684B1E01249C402243B9
:100B7000264B1A6010BD10B502460020002300214C
:100B8000C2F38331012404FA01F1204C203424689B
:100B900004EA01038B4201D1012000E0002010BDD6
:100BA00030B50146002000220023C1F38142C1F389
:100BB00001531AB9154C2834206811E0012A0CD1D0
:100BC000124C24342468DD0024FA05F0022B02D0F4
:100BD00000F00F0004E0C0B202E00C4C2C3420689E
:100BE00030BD014600200022C1F380521AB9074BE4
:100BF0003033186802E0054B343318687047000042
:100C000080E100E084E200E000E400E004ED00E0C8
:100C10000000FA0500EF00E080FFFF1F0020D5492B
:100C2000C86008611420486100208861C8610846D6
:100C3000006840F00100086008464068CE4908405E
:100C4000CC49486008460068CC490840C94908605A
:100C50000846006820F4802008600846406820F4B8
:100C6000FE004860002088607047C249096821F48E
:100C70008031C04A11601146096821F48021116059
:100C8000B0F5803F03D0B0F5802F0ED106E0B94912
:100C9000096841F48031B74A116007E0B549096835
:100CA00041F4A021B34A116000E000BF00BF7047CB
:100CB00001460020AF4A106820F0F80040EAC10069
:100CC00010607047AE490860704702460020A94B8B
:100CD000586820F47C1042EA01031843A54B586081
:100CE0007047A7490866704701460020A14A50682E
:100CF00020F003000843506070479E48406800F0B1
:100D00000C007047014600209A4A506820F0F0001D
:100D100008435060704701460020964A506820F40E
:100D2000E06008435060704701460020914A5068D7
:100D300020F4605040EAC1005060704729B18D4AEC
:100D4000527A02438B4B5A7204E08A4A527A8243A7
:100D5000884B5A7270478A49D831086070470146FB
:100D60000020844A506820F4404008435060704797
:100D70000021804A203211707E4A82F8201001281A
:100D800002D004280AD104E001217A4A20321170ED
:100D900005E00521774A2032117000E000BF00BF56
:100DA00070477849086070477249096A0143714A7F
:100DB00011627047734944390860704730B50021AB
:100DC0000022002400236B4D6D6805F00C0121B159
:100DD000042905D0082923D105E06B4D056022E0E8
:100DE000694D05601FE0634D6D6805F470120225C2
:100DF00005EB92425F4D6D6805F480341CB9634D7C
:100E0000554305600BE05B4D6D6805F400351DB181
:100E10005E4D5543056002E05B4D5543056002E0C1
:100E2000594D056000BF00BF524D6D6805F0F001DF
:100E30000909574D6B5C0568DD4045604D4D6D6897
:100E400005F4E061090A524D6B5C4568DD40856040
:100E5000484D6D6805F46051C90A4D4D6B5C45689D
:100E6000DD40C560434D6D6805F44041890B494D37
:100E70006B5CC568B5FBF3F5056130BD29B13D4A32
:100E8000526902433B4B5A6104E03A4A5269824339
:100E9000384B5A61704729B1364A92690243354B43
:100EA0009A6104E0334A92698243324B9A617047F7
:100EB00029B1304AD26902432E4BDA6104E02D4A4F
:100EC000D26982432B4BDA61704729B1294AD26833
:100ED0000243284BDA6004E0264AD2688243254B5D
:100EE000DA60704729B1234A12690243214B1A6123
:100EF00004E0204A126982431E4B1A61704721495F
:100F00004039086070471E49C86470471949C87164
:100F1000704710B501460022002300204A11012A23
:100F200002D1144C236806E0022A02D1114C236A34
:100F300001E0104C636A01F01F02012494401C4040
:100F40000CB1012000E0002010BD0A48406A40F0CA
:100F5000807008494862704701460020054A92683F
:100F60000A400AB1012000E0002070470149887260
:100F700070470000001002400000FFF8FFFFF6FE7F
:100F80000000424280044242001BB700808D5B009B
:100F9000AE720008BE72000810B5044682482044B4
:100FA00060B1B0F5784F13D101210803FFF78DFF31
:100FB00000214FF48050FFF788FF0AE001218803E9
:100FC000FFF790FF00214FF48040FFF78BFF00E018
:100FD00000BF00BF10BD10B50022028802F44152CC
:100FE0000B884C8823438C882343CC8823430C896B
:100FF00023434C8923438C892343CC8923431A43BD
:1010000002800B8A038210BD002101804180818013
:10101000C180018141818181C181072101827047A5
:1010200021B1028842F04002028004E002884FF6BB
:10103000BF731A400280704730B5002400230C11A2
:101040000125A540ABB21AB185881D43858002E019
:1010500085889D43858030BD1AB183880B4383808A
:1010600002E083888B43838070478181704701460B
:10107000888970474FF6FF62914204D0028842F49B
:101080008072028004E002884FF6FF631A400280FB
:10109000704721B1828842F00402828004E0828895
:1010A0004FF6FB731A408280704721B1028842F4E8
:1010B0000062028002E002880022028070470188FC
:1010C00041F480510180704721B1028842F40052FE
:1010D000028004E002884DF6FF731A4002807047D8
:1010E00002460020012901D0108B00E0908A704751
:1010F0000146088A7047B1F5804F04D1028842F456
:101100008042028004E002884BF6FF731A4002809E
:1011100070470246002013890B400BB1012000E00C
:1011200000207047202905D10289028842F0400240
:10113000028006E0402901D1028902E002898A4347
:1011400002817047F0B502460020002400230025EC
:1011500001F00F070126BE40B4B20B1101269E40DC
:10116000B3B2968806EA03051689264016B10DB17A
:10117000012000E00020F0BD10B50022552905D166
:101180000389038843F0400303800BE0562901D113
:10119000038907E001F00F040123A3409AB20389F9
:1011A0009343038110BD000000C8FFBF042808D18D
:1011B0004FF0E021096941F004014FF0E022116194
:1011C00007E04FF0E021096921F004014FF0E0222F
:1011D000116170474FF0E0214861704720B900214C
:1011E0004FF0E022916112E0012808D14FF0E02198
:1011F000096941F001014FF0E022116107E04FF071
:10120000E021096921F001014FF0E02211617047EE
:1012100040B14FF0E021096941F002014FF0E022B6
:10122000116107E04FF0E021096921F002014FF060
:10123000E022116170474FF0E0208069704710B5DF
:1012400001460022002300204A11012A03D14FF059
:10125000E024236902E04FF0E024E36901F01F027B
:10126000012494401C400CB1012000E0002010BD7E
:1012700010B50446B4F1804F06D0F648204460B162
:10128000B0F5806F1BD111E001210846FFF72AFE5F
:1012900000210120FFF726FE12E001210220FFF7C6
:1012A00021FE00210220FFF71DFE09E0012104209C
:1012B000FFF718FE00210420FFF714FE00E000BF36
:1012C00000BF10BD0A8882854A880285028802F024
:1012D0009F0202808A88CB881A4303881A430280BF
:1012E000704730B500230022028C4C8814B14C8822
:1012F000012C2BD1038B4C88D74D35F8144023405B
:101300004C88D64D35F8144022404C886CB9048C7A
:101310004FF6FE752C4004840C8823438C88848609
:1013200042F00102CC8822430EE0048C4FF6EF75A8
:101330002C4004840C8843EA04238C88048742F000
:101340001002CC8842EA0412038333E04C88022C5A
:1013500002D04C88032C2DD1838B4C88BE4D35F8A0
:10136000144023404C88BD4D35F8144022404C8831
:10137000022C0ED1048C4FF6FF652C4004840C889F
:1013800023438C88848742F48072CC8842EA04220A
:101390000FE0048C4EF6FF752C4004840C8843EA61
:1013A00004238C88A0F8404042F48052CC8842EA62
:1013B00004328383028430BD0A460021018B4FF63C
:1013C000F3731940114301837047F0B50C4615467D
:1013D00000210022018B028C068C4FF6FE773E40E6
:1013E000068447F60C76314045EA03163143BE1EAB
:1013F000324044F001063243002606830183028412
:10140000F0BD02460020108B4FF2FF3318404FF61C
:10141000FF7303EA0123184310837047F0B50C46AD
:101420001546002100220026018B028C4FF6FF7723
:1014300007EA0416078C4FF6EF7C07EA0C070784CF
:1014400040F67F4739404FF6FF7707EA03373943C5
:101450004FF6FF7707EA052739434FF6CF773A4033
:1014600046F010073A4301830284F0BD2DE9F041B4
:1014700005460C4600260127A08808B9022600E090
:101480000026E088012801D1022700E001276088BA
:10149000A0B9A37AE288A1882846FFF796FF2189A0
:1014A0002846FFF789FFA37A3A4631462846FFF7D8
:1014B000B5FF21892846FFF7A4FF13E0A37AE2884D
:1014C000A1882846FFF7AAFF21892846FFF799FF40
:1014D000A37A3A4631462846FFF777FF2189284606
:1014E000FFF76AFFBDE8F08102460020908B4FF2C3
:1014F000FF3318404FF6FF7303EA0123184390832C
:101500007047F0B50C461546002100220026818B5D
:10151000028C4FF6FF7707EA0436078C4EF6FF7C05
:1015200007EA0C07078440F67F4739404FF6FF77FC
:1015300007EA05274FF6FF7C0CEA033C47EA0C0755
:1015400039434CF6FF773A4046F480573A4381835B
:101550000284F0BD0A460021818B4FF6F3731940D7
:10156000114381837047F0B50C46154600220021D7
:101570000026828B018C4FF6FF7707EA0426078C42
:101580004FF6FF6C07EA0C07078447F60C773A40E2
:1015900045EA03173A434FF6FC77394046F4807723
:1015A000394382830184F0BD70B505460C4620881E
:1015B000072833D1608850B9A37AE288A1882846E9
:1015C000FFF703FF21892846FFF7F6FE2AE060882F
:1015D00001280AD1A37AE288A1882846FFF71EFFD6
:1015E00021892846FFF70DFF1CE0608802280AD1F8
:1015F000A37AE288A1882846FFF7B5FF218928460B
:10160000FFF7A8FF0EE0A37AE288A1882846FFF73B
:1016100078FF21892846FFF767FF03E02146284627
:10162000FFF724FF70BD0021018041808180C180CF
:1016300070470021018041808180C180704707216F
:1016400001800021418081800121C1800021018130
:101650008172704700FCFFBFC2720008CA720008A6
:1016600021B1028842F00102028004E0028840F2C7
:10167000FE331A40028070471AB183890B4383817D
:1016800002E083898B438381704710B50023B0F853
:101690004830002341EA02042343A0F8483010BD3B
:1016A00010B51346002282890BB10A4302E0CC43F5
:1016B000A4B22240828110BD01894FF6F072114020
:1016C000018170470A46002101894FF6877319404E
:1016D00011430181704730B504460D462946204626
:1016E000FFF7F0FF208940F00700208130BD2DE991
:1016F000F04104460D4616461F46602D06D13B4676
:10170000012231462046FFF789FE05E03B460122D3
:1017100031462046FFF759FE29462046FFF7D2FF03
:10172000208940F007002081BDE8F08130B50C46EB
:101730000021018901F0F70144EA020545EA032589
:101740002943018130BD2DE9F04104460D4616467E
:101750001F463B46324629462046FFF7E7FF2089D1
:101760004FF6F07108402081208940F00700208169
:1017700020894FF6877108402081208940F0700051
:101780002081BDE8F0812DE9F04104460D46164662
:101790001F463B46324629462046FFF7C7FF2089B1
:1017A00040F480402081BDE8F0810185012A04D108
:1017B000838A43F00103838203E0838A03F00103F9
:1017C000838270470A460021018840F29F33194006
:1017D0001143018070470A460021018B47F60F73C1
:1017E000194011430183704702460020108B40F6D8
:1017F0007F7318404FF6FF7303EA012318431083E9
:1018000070470A460021818B47F60F731940114338
:101810008183704702460020908B40F67F7318400A
:101820004FF6FF7303EA01231843908370470A467B
:101830000021018812B141F0800102E040F27F33C3
:101840001940018070470A460021818812B141F099
:10185000080101E001F00701818070470A4600217C
:10186000018B47F677731940114301837047024695
:101870000020108B47F27F7318404FF6FF7303EA86
:1018800001231843108370470A460021818B47F6D5
:101890007773194011438183704702460020908B73
:1018A00047F27F7318404FF6FF7303EA0123184392
:1018B000908370470A460021018B47F67B731940DD
:1018C00011430183704702460020108B47F67F3397
:1018D00018404FF6FF7303EA012318431083704743
:1018E0000A460021818B47F67B731940114381839F
:1018F000704702460020908B47F67F3318404FF622
:10190000FF7303EA01231843908370470A460021BE
:10191000018812B141F0020102E040F2FD331940AA
:1019200001807047F0B50C4615461E460022002186
:1019300000230289018B038C4FF6F0773A40224353
:1019400047F67C47394040F2011739434FF6DD77BF
:101950003B404FF6FF7707EA06172F433B430281D0
:1019600001830384F0BD828A0A43828270470A465B
:101970000021018C4FF6FD7319401143018470471B
:1019800002460020108C4FF6DF7318404FF6FF73AD
:1019900003EA011318431084704702460020108C9C
:1019A0004FF6FF5318404FF6FF7303EA0123184325
:1019B0001084704702460020108C4DF6FF731840CB
:1019C0004FF6FF7303EA01331843108470470A4649
:1019D00000210188012A02D141F0040102E040F215
:1019E000FB3319400180704721B1828842F08002A8
:1019F000828004E082884FF670731A4082807047BC
:101A00000A460021018840F2F73319401143018052
:101A100070470A460021818801F0800111438180CE
:101A200070470A46002101894FF6F07319401143AF
:101A3000018170470A46002101894FF677731940EA
:101A40001143018170478185704781867047018706
:101A5000704781877047A0F8401070470A46002100
:101A60000188C9B21143018070470146888E7047D2
:101A70000146088F70470146888F70470146B1F8CC
:101A8000400070470146888C70470146088D7047BA
:101A900002460020138A0B400BB1012000E0002019
:101AA0007047028A8A430282704730B5024600209E
:101AB00000230024158A05EA0103958905EA01043B
:101AC00013B10CB1012000E0002030BD028A8A432E
:101AD000028270470FB430B5C3B004460A2151A842
:101AE0004CAB56AACDE90001D9A103A805F056FADE
:101AF00003A9204601F0D4FF03A805F07FF90546AD
:101B0000284643B030BC5DF814FB70B504460D4662
:101B10002946204601F075FF70BD0FB410B5C0B066
:101B200042AAD8A1684605F039FA6946002001F0BA
:101B3000B7FF684605F062F90446204640B010BC85
:101B40005DF814FB9AB000F0E1FA684600F0C5FFBA
:101B50004FF4E270ADF85E000220ADF85C0000BF0B
:101B600000235A1E1946D548006804F002FF0128D8
:101B700011D100F0DAFA012804D11890684600F07B
:101B8000E5FA01E00020189000231A461946CB48D8
:101B9000006804F0D1FD002341F288326946C8484C
:101BA000006804F0C9FD41F2883003F0CEFED7E7AB
:101BB000ADF5047D01240025012600F051FE00F062
:101BC0001EFBC0A000F09FFB01F008FB01F0E4FE4B
:101BD00000200323CDE90030029003464FF4C07289
:101BE000C2A10390C24803F082FC00BF002341F26F
:101BF00088326AA9B248006804F0BBFE0028F5D01C
:101C000082980028F2D000235A1E1946AB4800687B
:101C100004F0AFFE0128E9D14FF4A0711AA805F035
:101C2000C4F81AA858226EA91690684605F0A4F8C0
:101C30006AA80FC800F087FF42F210711AA800F0DE
:101C400062FC02282CD1ABA000F0B7FD072839D1E7
:101C500001208390002E21D1A9A000F054FB58222E
:101C60006EA9684605F088F86AA80FC8FFF755FF07
:101C70000544AD4844F620615822CDE91645CDE92A
:101C800018106EA9684605F077F86AA80FC800F02A
:101C90007AFC8CA000F037FB01240025012611E01E
:101CA0000020839000265C226DA9684605F064F848
:101CB00020466AA90EC9FFF70DFF0544641C81A0E8
:101CC00000F021FB00231A4619467C48006804F006
:101CD00033FD8BE708B54FF48030FEF7C6FF00BF39
:101CE0003120FFF716F90028FAD002208F4908604A
:101CF0000020FFF707F80020FFF716F84FF4806088
:101D0000FFF709F84FF480110811FEF7DEFF0120FC
:101D1000FEF7E7FF00BF3920FFF7FBF80028FAD0F5
:101D20000220FEF7E1FF00BFFEF7E7FF0828FBD126
:101D300001211D20FFF7AFF800210846FEF776FECF
:101D40004FF44070FEF7BBFD0420FFF72FFA80230D
:101D50004FF4E1327649774801F0EAF84FF4C55084
:101D6000ADF8000003208DF8020010208DF803006C
:101D700069467148FEF73DFC4FF4C070ADF80000B5
:101D800003208DF8020010208DF8030069466B488F
:101D9000FEF72FFC0120ADF8000003208DF80200B3
:101DA00010208DF8030069466548FEF722FC08BD47
:101DB0001FB5FFF78FFF00226821142004F00BFCF1
:101DC0003F4908600846006808B900BFFEE70120E7
:101DD00004F027FD394908600846006808B900BFCB
:101DE000FEE700200423CDE90030029003464FF4C3
:101DF000086254A10390554803F079FB03F0A6FF55
:101E0000002004B010BD1FB501F0E8F901F0C4FDD9
:101E100000200223CDE90030029003464FF408620F
:101E20004BA10390324803F062FB00BFFEE74AA2D9
:101E30000321002000F0B0FF00BFFEE770B50446AC
:101E40000D46002261B23A4801F01CF9204670BDEF
:101E50007B2264617465223A222573222C226C61F4
:101E600074223A222573222C226C6E67223A222594
:101E700073222C227370656564223A222564227DC8
:101E8000000000007B226964223A2573222C202264
:101E90006F6E6C696E65223A66616C7365222C22E6
:101EA000677073223A74727565222C22706F7369A1
:101EB00074696F6E223A5B0A000000000400002083
:101EC00000000020687474703A2F2F70747376329B
:101ED0002E636F6D2F742F4750536F6E6C696E6554
:101EE0005372762F706F73740000000047505300D8
:101EF000451B00087374617475733A7472756500DC
:101F0000687474703A2F2F70747376322E636F6D0D
:101F10002F742F4750536F66666C696E65537276E7
:101F20002F706F73740000000B1B0008002002402C
:101F3000A8020020004400400008014000100140B9
:101F4000000C01404750525300000000B11B000834
:101F5000534156454C4F43004641494C2E2E2E00CE
:101F6000F0B5A1B006460D46002403F015FF074664
:101F700000BF142220A9FC4801F075F838B19DF883
:101F800080202046611CCCB20DF800200BE09DF8AB
:101F900080000A2807D1A01E1DF800000D2802D1DC
:101FA000042C00DD06E003F0F7FEC01BA84201D2BE
:101FB000802CDEDB00BF802C02D1002021B0F0BDE0
:101FC00000200DF804006946304604F01EFF012091
:101FD000F4E72DE9F041A2B004460F4615461E462F
:101FE0004FF0010800235A1E1946E048006804F02B
:101FF000C0FC01282AD100BF642201A9DA4801F0FF
:1020000032F80128F8D02146D9A004F0B7FF3146B4
:1020100002A8FFF7A5FF10B94FF000080FE03946FE
:1020200002A804F0CDFE50B1314602A8FFF798FF98
:10203000294602A804F0C4FE08B94FF000080023A6
:102040001A461946C948006804F076FB4FFA88F032
:1020500022B0BDE8F0812DE9F041A2B005460E4660
:10206000174600244FF00108802101A804F09DFECE
:1020700000235A1E1946BD48006804F07AFC012866
:1020800042D100BFC82221A9B74800F0ECFF0128C7
:10209000F8D02946B6A004F071FF00BF3A4621A946
:1020A000B14800F0E0FF38B19DF884202046611C63
:1020B000CCB201A90A5402E04FF0000807E0314613
:1020C00001A804F07DFE00B101E0802CE6DB00BF3A
:1020D000802C02D0B8F1000F0AD100231A4619460D
:1020E000A248006804F028FB002022B0BDE8F0817F
:1020F000002001A9085500231A4619469B4800688C
:1021000004F01AFB0120F0E70020EEE710B54FF4D1
:10211000FA6298A198A0FFF79EFF4FF4FA6295A18A
:1021200099A0FFF798FF012010BD10B54FF4FA6297
:1021300099A19BA0FFF78FFF012800D110BD4FF49C
:10214000FA629BA196A0FFF786FFF7E770B5A2B0F1
:10215000044600235A1E19468448006804F009FC0E
:10216000012849D100BF642201A97F4800F07BFF0C
:102170000128F8D090A004F001FF4FF4FA6102A802
:10218000FFF7EEFE01282FD18FA102A804F046FE32
:102190008DA1002004F042FE0646314604F12800DD
:1021A00004F033FE88A1002004F038FE06463146D4
:1021B00004F1140004F029FE84A1002004F02EFE96
:1021C00081A1002004F02AFE80A1002004F026FE58
:1021D0000646314604F13C0004F017FE7AA10020C7
:1021E00004F01CFE012500E0002500231A461946D4
:1021F0005E48006804F0A0FAE8B222B070BD10B5E5
:102200004FF4FA625BA172A0FFF725FF4FF4FA6268
:1022100058A177A0FFF71FFF4FF4FA6255A17CA0E9
:10222000FFF719FF4FF4FA6252A17DA0FFF713FFE9
:1022300010BD70B58EB004460D461646342101A877
:1022400004F0B3FD41F2883279A17BA0FFF703FFD0
:102250002B4622467BA101A804F0A0FE334680A2B3
:1022600044A101A8FFF7B5FE012802D100200EB05D
:1022700070BD0120FBE72DE9F0410546284604F03A
:10228000BDFD871C384604F0FAFC064616B9082046
:10229000BDE8F08142F2107274A175A0FFF7DBFE79
:1022A000012810D11A232A4674A1304604F076FE84
:1022B00044F6206273A13046FFF7CDFE08B905242D
:1022C00002E0032400E00424304604F02BFD204605
:1022D000DEE710B54FF4FA6261A16CA0FFF7BBFE18
:1022E000012801D1002010BD0120FCE710B542F209
:1022F00010726AA16CA0FFF7AEFE012801D1062082
:1023000010BD0720FCE730B5C1B0044601254FF4ED
:102310007A7218A167A0FFF79EFEFFF770FF4FF4D7
:102320007A7214A166A0FFF796FEC5B2012D1AD1EC
:102330004FF47A720FA165A0FFF78DFEC5B2012D93
:1023400002D0012041B030BD224665A101A804F0B1
:1023500025FE4FF47A7207A101A8FFF77CFE4FF427
:10236000FA6204A1C8E0CCE0A80200200800002026
:1023700025730D004F4B000041542B4347505350E1
:1023800057523D310000000041542B4347505352F7
:1023900053543D310000000033442046697800006A
:1023A00041542B434750535354415455533F00001D
:1023B000324420466978000041542B43475053492A
:1023C0004E463D300D0000002C0000002E000000A5
:1023D00041542B53415042523D332C312C22436FF8
:1023E0006E74797065222C224750525322000000EF
:1023F00041542B53415042523D332C312C224150F9
:102400004E222C22762D696E7465726E65742200E0
:1024100041542B53415042523D312C3100000000B9
:1024200041542B53415042523D322C3100000000A8
:1024300053485554204F4B0041542B434950534867
:102440005554000041542B43495053544152543D7C
:1024500022544350222C222573222C222573220041
:10246000434F4E4E454354204F4B00003E0000006A
:1024700041542B43495053454E4400002573256376
:102480000000000053454E44204F4B0041542B4365
:10249000495053544154555300000000434C4F538E
:1024A00045204F4B0000000041542B434950434C02
:1024B0004F53450041542B485454505445524D00FD
:1024C00041542B48545450494E49540041542B48D0
:1024D000545450504152413D22434944222C310032
:1024E00041542B48545450504152413D2255524C76
:1024F000222C222573220000FEA0FFF7ACFD002055
:1025000020E701201EE72DE9F0418EB005460C467C
:10251000342101A804F049FC022603F03DFC0746E3
:1025200000BF03F039FCC01B6428FAD3284604F02E
:1025300065FC00F1010823464246F9A101A804F018
:102540002DFD4FF4FA62FBA101A8FFF784FD0128DD
:1025500014D144F62062AFF2E4112846FFF77BFD68
:10256000012801D003260AE041F28832F4A1F9A043
:10257000FFF771FD012802D0042600E00326304653
:102580000EB0BDE8F0812DE9FE4FDDF89480229E6B
:102590004FF002091E2004F072FB0290A02004F00C
:1025A0006EFB01903546002700200199C047019835
:1025B00004F024FC834601200199C047019804F0EF
:1025C0001DFC8246002475E00520B4FBF0F100FB01
:1025D000114020BB052E04D223983044801C00906B
:1025E0000CE0052D05D205FB0AB02844801C0090A4
:1025F00004E0042000FB0AB0C01D0090C8A1249B89
:10260000009A029804F0CAFC4FF4FA62C9A1029839
:10261000FFF721FD012802D04FF003094CE0B9F18A
:10262000020F28D120460199C047019804F0E6FB2B
:102630000744052D0ED2681EA04206D92CB1C9A0B0
:10264000019904F09BFC7F1C15E0C7A0019904F0E0
:1026500095FC10E00520B4FBF0F100FB11400428CC
:1026600004D1C1A0019904F089FC04E0BDA0019946
:1026700004F084FC7F1C0520B4FBF0F100FB11404A
:10268000042816D13F1D44F62062AFF21831B7A0DE
:10269000FFF7E1FC012801D04FF0030941F2883235
:1026A000A7A1ACA0FFF7D7FC012801D04FF0040987
:1026B0006D1F641CB44287D300BF052E01D3052DC6
:1026C00014D244F62062AFF25431A8A0FFF7C3FC45
:1026D000012801D04FF0030941F2883298A19DA052
:1026E000FFF7B9FC012801D04FF00409029804F06B
:1026F00019FB019804F016FB4846BDE8FE8F2DE952
:10270000F84F20AD95E8E0011E2004F0B8FA0090E3
:10271000A02004F0B4FA83464FF0020903F03CFB1A
:10272000824600BF03F038FBA0EB0A003228F9D341
:102730007019821C3B467AA1009804F02FFC4FF4DC
:10274000FA627CA10098FFF786FC01282AD10024B8
:1027500010E059462046C047681EA04205D924B162
:10276000594680A004F00AFC03E059467EA004F01C
:1027700005FC641CAC42ECD344F62062AFF20C4181
:102780007AA0FFF768FC012801D04FF0030941F25D
:1027900088326BA16FA0FFF75EFC012804D04FF0D8
:1027A000040901E04FF00309009804F0BBFA584611
:1027B00004F0B8FA4846BDE8F88F70B5044608251D
:1027C00003F0EAFA064600BF03F0E6FA801BB0F514
:1027D0007A7FF9D342F21072214665A0FFF73BFCE5
:1027E000012800D10725284670BD10B54FF47A7234
:1027F000AFF28041AFF24430FFF72DFC012801D148
:10280000062010BD0520FCE730B5A9B0002501ACBD
:102810004FF4FA62AFF2A44158A0FFF71CFCD0B10C
:1028200000BF4FF6FF726946594800F01CFC28B102
:102830009DF8000004F8010B681C85B214F8020C26
:102840000D2806D19DF800000A2802D1022D00DDD6
:1028500000E0E6E700BF00202070012029B030BD75
:1028600010B5012003F0DDFF4A4908600846006802
:1028700008B900BFFEE74FF4FA62AFF2085146A074
:10288000FFF7E9FB40F6B832AFF25C41AFF25840D7
:10289000FFF7E1FB4FF4FA62AFF2285141A0FFF7D6
:1028A000DAFB4FF4FA62AFF2345141A0FFF7D3FBE9
:1028B0004FF4FA62AFF2445140A0FFF7CCFB10BDD9
:1028C00010B54FF4FA62AFF254513EA0FFF7C3FBCC
:1028D00070B9012211463C48FDF738FF40F6B83088
:1028E00003F033F8002201213748FDF72FFF6DE098
:1028F0007EE0000041542B48545450504152413D19
:1029000022434F4E54454E54222C226170706C6904
:10291000636174696F6E2F6A736F6E22000000002E
:1029200041542B48545450444154413D25642C2576
:1029300064000000444F574E4C4F414400000000DB
:102940002B48545450414354494F4E3A312C323065
:102950003000000041542B48545450414354494FD7
:102960004E3D310025732C00257300000A5D7D006B
:1029700041542B48545450524541440041542B4338
:102980005553443D312C222A31303123220000009E
:10299000A80200200800002041542B4346554E3D1C
:1029A0003100000041542B4353434C4B3D31000058
:1029B00041542B434D47463D3100000041542657BA
:1029C0000000000041540000000C01404FF4FA6286
:1029D000AFF2606169A0FFF73EFB00BF4FF4FA62FF
:1029E000AFF27061AFF22400FFF735FB0028F5D09D
:1029F00010BD2DE9F04107460C46002661A138467E
:102A000004F00CFA054610E05FA1002004F006FA7D
:102A100005463146761C01EB810104EB4100294655
:102A200004F0F3F9052E00D101E0002DECD100BF38
:102A3000BDE8F08130B597B0044600235A1E194610
:102A40005348006803F095FF012844D1342102A8BF
:102A500004F0ABF900BF642201A94E4800F003FB6B
:102A60000128F8D04CA004F089FA4FF4FA610FA8BD
:102A7000FFF776FA40B302A90FA8FFF7BAFFAFF24B
:102A8000F40107A804F0CAF90546294604F15000EC
:102A900004F0BBF9AFF20C110DF1260004F0BEF901
:102AA0000546294604F1560004F0AFF93DA104F1B2
:102AB000140004F0AAF93BA104F1280004F0A5F9E0
:102AC000AFF274100088A08700231A4619463048D8
:102AD000006803F031FE17B030BD70B58AB005460E
:102AE00000235A1E19462A48006803F042FF0128B5
:102AF00026D100BF642201A9264800F0B4FA0128BB
:102B0000F8D02AA004F03AFA4FF4FA6102A8FFF7CD
:102B100027FA68B127A102A804F052F9861C0F22F7
:102B20003146284604F05EF90020E873012400E0F5
:102B3000002400231A4619461548006803F0FCFDDE
:102B4000E0B20AB070BD0FB410B5ACB0489C002123
:102B500038A8CDE90001029133AB2EAA039116A14A
:102B600004A804F01BFA04AAAFF20421204604F0E2
:102B700015FA2CB010BC5DF814FB00004154453030
:102B8000000000003A0000002C220D0A00000000A6
:102B900008000020A802002041542B435245473F23
:102BA0000D000000302E30300000000041542B4753
:102BB000534E0D000D0A00007B226964223A2573F2
:102BC0002C226C6174223A25732C226C6E67223A97
:102BD00025732C227370656564223A25642C226665
:102BE00075656C223A25642C2262656172696E6794
:102BF000223A25647D000000002000E0401CB0F572
:102C00007A7FFBD37047002000E0401C40F2744103
:102C10008842FAD3704700B50246002300BF02E0A5
:102C2000FFF7F1FF5B1C9342FAD300BD70B5044679
:102C30000E4600224FF400617C48FDF787FD36B94F
:102C400000224FF480717A48FDF780FD04E00122F4
:102C500011027748FDF77AFD00251BE004F08000A3
:102C600028B1012280217148FDF770FD04E00022A7
:102C700080216E48FDF76AFD002220216B48FDF798
:102C800065FD6006040E012220216848FDF75EFD07
:102C9000681CC5B2082DE1DB0122D1026348FDF7B3
:102CA00055FD70BD10B500210C20FFF7BFFF0021BE
:102CB0008020FFF7BBFF002404E001210020FFF784
:102CC000B5FF641CB4F5FC7FF7D310BD10B501222D
:102CD00080215748FDF73AFD00224FF480515348B8
:102CE000FDF734FDFFF788FF012211034F48FDF780
:102CF0002DFD00224FF400614C48FDF727FDFFF742
:102D00007BFF0122D1024948FDF720FDFFF774FF48
:102D100000212120FFF78AFF0021C820FFF786FF4E
:102D200000210620FFF782FF00211320FFF77EFF1E
:102D300000212020FFF77AFFFFF7B4FF00210C20CD
:102D4000FFF774FF00224FF400613848FDF7FEFCE6
:102D500010BD70B504460D4645F040000021FFF758
:102D600065FF44F080000021FFF760FF70BD70B583
:102D70000446A4F12000C4B200250AE004EB44019B
:102D80002C4A02EB4101485D0121FFF74FFF681C0F
:102D9000C5B2062DF2DB70BD70B505460E46144671
:102DA00031462846FFF7D5FF03E02078FFF7DFFF25
:102DB000641C20780028F8D170BD2DE9F05F8346AF
:102DC000894692461E460A9CE11704EB5171C910D0
:102DD000A4EBC10131B92046E11704EB5171C1F3F5
:102DE000C70807E02046E11704EB5171C910491CE0
:102DF00001F0FF08002514E049465846FFF7A9FFF7
:102E0000002707E005FB06711AF801000121FFF712
:102E10000DFF7F1CB742F5D309F1010000F0FF0957
:102E20006D1C4545E8D3BDE8F09F00000008014057
:102E3000001001400C0000203EB501210846FEF7BD
:102E400037F801210220FEF733F84FF08040FEF7FB
:102E50000FFA3248FEF70CFA01A8FEF7E4FB4FF434
:102E60006164ADF804400020ADF80600ADF808003C
:102E7000ADF80A0001A9A006FEF724FA012188078F
:102E8000FEF7D5FC4FF6FF70ADF8040001A923480A
:102E9000FEF718FA01212148FEF7C9FC1C208DF825
:102EA000000000208DF802008DF8010001208DF84F
:102EB00003006846FDF709FD012211469007FEF761
:102EC000DBFB01218807FEF7CBFB01211348FEF74E
:102ED000C7FB3EBD70B511482430058810480088F6
:102EE00005280FDB0F480088281A84B20E48008896
:102EF00084420CDD0C4804800088A0F561600B4919
:102F0000088004E006480088401C05490880054800
:102F1000058001218807FEF7D9FD70BD000400403F
:102F200038020020360200203A020020340200203D
:102F30002DE9F04188B006460C4617461D46002292
:102F40000121284603F047FBA06000220121681CF4
:102F500003F041FB60602660A06800287DD06068B7
:102F600000287AD096492068884205D1012144F290
:102F70000400FDF790FF03E001219248FDF798FF60
:102F80008F492068884203D10015ADF8000002E0A7
:102F90000820ADF8000004208DF8030069468A4837
:102FA000FDF727FB86492068884203D14015ADF81C
:102FB000000002E00420ADF8000003208DF80200BC
:102FC00018208DF8030069467F48FDF712FB029731
:102FD0000020ADF80C00ADF80E00ADF81000ADF813
:102FE00012000C20ADF814000020ADF81600ADF86A
:102FF00018004FF40070ADF81A000020ADF81C0066
:1030000002A92068FDF708F9002240F22771206824
:10301000FDF772F9012240F225512068FDF76CF9A5
:1030200067492068884203D125208DF8040002E01A
:1030300026208DF804000F208DF8050000208DF863
:10304000060001208DF8070001A8FDF73EFC0121D4
:103050002068FDF745F902E0FFE74FF00008404621
:1030600008B0BDE8F08170B504460D461646002351
:1030700032462946A06803F07CFC08B1012070BDEF
:103080000020FCE770B505460C461646A1B24F4835
:10309000FDF78EF900BF40214C48FDF7E0F900280C
:1030A000F9D0012070BD2DE9F04106460D461746C6
:1030B0002C4606E094F9001000223046FFF7E2FFAC
:1030C000641C20780028F5D1BDE8F08170471CB55C
:1030D0000020019040F227713948FDF7CDF9012811
:1030E00013D13B4901AA4868694603F0D0FC012886
:1030F00005D19DF800103248FDF75AF905E000228D
:1031000040F227712E48FDF7F7F840F225512C4880
:10311000FDF7B2F901280BD12948FDF74DF9C0B2EE
:1031200000902B49002301AA8868694603F09DFBA3
:10313000019818B14FF08050264908601CBD1CB59D
:103140000020019040F227712048FDF795F90128F1
:1031500017D1214901AA4868694603F098FC012863
:1031600005D19DF800101948FDF722F905E000226D
:1031700040F227711548FDF7BFF880211348FDF78D
:1031800077F940F225511148FDF776F901280FD162
:1031900020210E48FDF76CF90C48FDF70DF9C0B27F
:1031A00000900D49002301AA8868694603F05DFB81
:1031B000019818B14FF08050064908601CBD00000E
:1031C00000380140040002000008014000440040B3
:1031D0009C02002004ED00E0A802002000B587B0AA
:1031E00001211420FDF757FE01210803FDF753FECE
:1031F0002020ADF8040003208DF8060018208DF87B
:10320000070001A92948FDF7F4F98020ADF8040072
:1032100001A92648FDF7EDF94020ADF8040004208F
:103220008DF8070001A92148FDF7E3F92048FDF7D3
:10323000B3FE0020ADF808004FF48270ADF80A002C
:103240000020ADF80C00ADF80E00ADF810004FF402
:103250000070ADF812001020ADF814000020ADF899
:1032600016000A20ADF8180002A91148FDF7B3FEB8
:1032700001210F48FDF7D4FE07B000BD10B504468C
:1032800000BF02210A48FDF744FF0028F9D021467B
:103290000748FDF7EAFE00BF01210548FDF739FFA9
:1032A0000028F9D00248FDF7E2FE10BD00080140F9
:1032B000003001402DE9F04105460C4617464FF419
:1032C000967805F03F0141F04000FFF7D7FF200E50
:1032D000FFF7D4FFC4F30740FFF7D0FFC4F3072084
:1032E000FFF7CCFFE0B2FFF7C9FF47F00100FFF79F
:1032F000C5FF0C2D02D1FF20FFF7C0FF00BFFF204C
:10330000FFF7BCFFC6B206F0800030B1B8F1000094
:10331000A8F101011FFA81F8F1DC3046BDE8F08127
:1033200010B50446FF20FFF7A9FFE070FF20FFF76C
:10333000A5FFA070FF20FFF7A1FF6070FF20FFF73F
:103340009DFF207010BD10B50446FF2221461020BD
:10335000FFF7B0FF10BD10B54FF4967406E0FF20E4
:10336000FFF78CFFFF2801D1002010BD201EA4F123
:1033700001018CB2F3DCFF20F7E770B54FF4FA657A
:1033800000BFFF20FFF77AFFC4B2FF2C04D1281E34
:10339000A5F101018DB2F4DC204670BD10B5FE4CE4
:1033A00006E0FF20FFF76AFFFF2801D1002010BDD3
:1033B000201EA4F10104F4D1FF20F8E710B5F64C6B
:1033C00006E0FF20FFF75AFFFF2801D1002010BDC3
:1033D000201EA4F10104F4D1FF20F8E710B54FF44A
:1033E0008071EE48FDF7BBF910BD10B54FF4807148
:1033F000EA48FDF7B2F9FF20FFF740FF10BD38B5EE
:1034000000200090FFF7EAFF4FF4967500BF952269
:1034100000210846FFF74EFF0446012C04D0281E69
:10342000A5F101018DB2F2DC012C01D0FF2038BDE5
:103430000220DB490870FFF78EFF04464FF49675B3
:1034400000BF87224FF4D5710820FFF733FF0446F1
:1034500004F0040018B10120D14908700DE068465D
:10346000FFF75EFF009880B2B0F5D57F00D104E091
:10347000281EA5F101018DB2E3DC00BF0DB9FF20CC
:10348000D5E7FFF768FF044644F6206500BF6522D4
:1034900000213720FFF70EFF0446012C03D0002047
:1034A000BF4908701CE0FFF756FF0446BC4800788F
:1034B000012806D1FF2200212920FFF7FBFE044648
:1034C00006E077224FF080412920FFF7F3FE044603
:1034D00004F0010020B1281EA5F101018DB2D6DC57
:1034E00000BFAF480078012805D104F0010010B1F9
:1034F0000020AB490870FFF72EFF0446A84800786B
:1035000098B944F6206500BFFF2200210120FFF793
:10351000D1FE044604F0010020B1281EA5F10101EE
:103520008DB2F1DCDDB9FF2081E79D4800780228EB
:1035300015D10DB9FF207AE7FF2200213A20FFF7CD
:10354000B9FE04465CB96846FFF7EAFE009800F051
:10355000804008B1032000E0022091490870FFF785
:10356000FAFE0446002062E72DE9F04105460E46CA
:103570000024FFF702FF0746FF2F1AD02F55285DC2
:10358000FE2803D1FF20FFF779FE2855012405E02E
:10359000FF20FFF773FE2855601C84B2B442F7DBAE
:1035A000FF20FFF76BFEFF20FFF768FE0020BDE85D
:1035B000F081FF20FBE77FB50446FFF7CCFE054610
:1035C00015B1FF2004B070BDFF2200210920FFF7D4
:1035D00071FE05460DB1FF20F4E710216846FFF7A4
:1035E000C3FF05469DF80000800920709DF800008B
:1035F000C0F3830060709DF8000000F00300A0702D
:103600009DF80100E0709DF8020020719DF8030014
:1036100060719DF804000001E080E0889DF80510CD
:1036200040EA1110E0809DF8050000F00F002072C4
:103630009DF80600C00960729DF80600C0F3801076
:10364000A0729DF80600C0F34010E0729DF80600DD
:10365000C0F3001020739DF80600C0F38100607372
:10366000207878BB9DF806008007000D20619DF84A
:103670000710206940EA810020619DF80810206948
:1036800040EA911020619DF80800C0F3C200207547
:103690009DF8080000F0070060759DF809004009DA
:1036A000A0759DF80900C0F38200E0759DF809003F
:1036B0008007400F2076207E9DF80A1040EAD11046
:1036C00020761FE0FFE79DF806008007000F607678
:1036D000607E9DF8071040EA911060769DF8070023
:1036E0008006800A20619DF80810206940EA0120C8
:1036F00020619DF809102069084320619DF80A00A7
:10370000C009A0769DF80A00C0F3801004F81B0FD2
:103710009DF80A008006400E607060789DF80B10DE
:1037200040EAD11060709DF80B0000F07F00A0709F
:103730009DF80C00C009E0709DF80C00C0F341102A
:1037400020719DF80C00C0F3820060719DF80C00A0
:103750008007000FA071A0799DF80D1040EA91102C
:10376000A0719DF80D00C0F34010E0719DF80D00B0
:1037700000F01E0020729DF80D0000F00100607244
:103780009DF80E00C009A0729DF80E00C0F38010D5
:10379000E0729DF80E0005E040420F00001001406D
:1037A0003C020020C0F3401020739DF80E00C0F3CF
:1037B000001060739DF80E00C0F38100A0739DF8A7
:1037C0000E0000F00300E0739DF80F004008207425
:1037D0009DF80F0000F0010060741B3C2846F1E6E4
:1037E0007FB50446FFF7B7FD054615B1FF2004B0CD
:1037F00070BDFF2200210A20FFF75CFD05460DB1D8
:10380000FF20F4E710216846FFF7AEFE05469DF85D
:10381000000020709DF801000002608060889DF823
:103820000210084360809DF80300000660609DF868
:103830000410606840EA014060609DF8051060680F
:1038400040EA012060609DF80610606808436060EF
:103850009DF8070020729DF8080060729DF809002D
:103860000006E0609DF80A10E06840EA0140E06070
:103870009DF80B10E06840EA0120E0609DF80C1014
:10388000E0680843E060207C9DF80D1040EA1110CC
:1038900020749DF80D000007000D6082608A9DF87D
:1038A0000E10084360829DF80F004008207501202B
:1038B000607528469BE77CB50446F848007808B94F
:1038C00004207CBDFFF747FD05460DB1FF20F8E75A
:1038D000652200213720FFF7EDFC05462DB9FF22B8
:1038E00000213320FFF7E6FC05460DB1FF20E8E795
:1038F00008216846FFF738FE05469DF800000009DC
:1039000020709DF8000000F00F0060709DF801002D
:10391000C009A0709DF80100C0F30210E0709DF88E
:10392000010000F00F0020719DF80200C0096071D5
:103930009DF80200C0F3C300A0719DF8020040078B
:10394000C00D208120899DF8031040EA910020815C
:103950009DF80300C0F34000A0729DF8030000F042
:103960000100E0729DF804000006E0609DF805107B
:10397000E06840EA0140E0609DF80610E06840EA37
:103980000120E0609DF80710E0680843E0602846E9
:1039900097E701207047704738B50025FFF7F9FF1A
:1039A00008B9FF2038BD4FF48070ADF8000010203A
:1039B0008DF8030003208DF802006946B848FCF733
:1039C00018FE4FF48071B648FCF7C7FE02E0FF20F6
:1039D000FFF754FC28466D1C40F6C4118842F6D30C
:1039E000FFF70DFD044644B9AC480078032804D025
:1039F0004FF40070FFF7A7FC0446FFF7F6FC2046E3
:103A0000D0E770B504460D46A4480078032800D0DE
:103A10006402FFF7E3FCFFF79EFC0646FF22214607
:103A20001120FFF747FC06462EB94FF400712846D7
:103A3000FFF79AFD0646FFF7D8FC304670BD2DE92A
:103A4000F04104460D46174694480078032800D0FC
:103A50006402FFF7C3FCFFF77EFC0646FF22214607
:103A60001220FFF727FC0646AEB909E04FF40071BB
:103A70002846FFF779FD064606B105E005F5007515
:103A8000381EA7F10107F1D100BFFF2200210C2051
:103A9000FFF710FC0646FFF7A8FC3046BDE8F081B2
:103AA0002DE9F04104460D464FF400787B4800783C
:103AB000032800D06402FFF791FCFFF74CFC064698
:103AC000FF2221461820FFF7F5FB064646BBFF20E4
:103AD000FFF7D4FBFF20FFF7D1FBFF20FFF7CEFB62
:103AE000FE20FFF7CBFB03E015F8010BFFF7C6FB49
:103AF000B8F10000A8F101011FFA81F8F4DCFF2001
:103B0000FFF7BCFBFF20FFF7B9FBFF20FFF7B6FB79
:103B100000F00E0707F0040018B1FFF73FFC06465F
:103B200000E0FF26FFF761FC3046BDE8F0812DE99B
:103B3000F04705460E4617464FF40079574800787F
:103B4000032800D06D02FFF749FCFFF704FC044690
:103B50005248007858B1FF2239461720FFF7AAFBD8
:103B6000044624B1FFF741FC2046BDE8F087FF2260
:103B700029461920FFF79EFB0446002C3AD1FF206E
:103B8000FFF77CFBFF20FFF779FBFF20FFF776FBB9
:103B900021E0FC20FFF772FB03E016F8010BFFF7B2
:103BA0006DFBB9F10000A9F101011FFA81F9F4DC04
:103BB000FF20FFF763FBFF20FFF760FBFF20FFF70D
:103BC0005DFB00F00E0808F0040018B1FFF7E6FBFB
:103BD000044600E0FF24381EA7F1010701D0FF2CA6
:103BE000D7D1FD20FFF74AFBFF20FFF747FBFFF788
:103BF000B2FB0446FFF7F9FB2046B6E770B5054671
:103C00000E462648007808B9042070BD2348007885
:103C1000032801D06D027602FFF7E0FBFFF79BFB64
:103C20000446FF2229462020FFF744FB044684B9BE
:103C3000FF2231462120FFF73DFB04464CB9FF220D
:103C400000212620FFF736FB044614B9FFF7B6FB28
:103C50000446FFF7CAFB2046D7E730B591B00446CB
:103C60000E48007810B9042011B030BDFFF7B6FB44
:103C7000FFF771FB05460DB1FF20F5E76522002136
:103C80003720FFF717FB05462DB9FF2200210D2035
:103C9000FFF710FB05462DB1FF20E5E73C020020B1
:103CA00000100140402101A8FFF75EFC0546FFF728
:103CB0009CFB9DF80400800920709DF80400C0F36F
:103CC000401060709DF80400C006C00C60806088E1
:103CD0009DF80510084360809DF806000002A08052
:103CE000A0889DF807100843A0809DF808000006F2
:103CF000A0609DF80910A06840EA0140A0609DF80E
:103D00000A10A06840EA0120A0609DF80B10A0688E
:103D10000843A0609DF80C0020739DF80D006073AF
:103D20009DF80E000009A0739DF80E0000F00F0032
:103D3000E0739DF80F0000022082208A9DF8101089
:103D4000084320829DF811008008A0749DF811009E
:103D500000F00300E0749DF81200000920759DF842
:103D6000120000F00F00607528467DE770B504462C
:103D7000FFF734FB2046FFF71EFC054625B904F18A
:103D80003000FFF72DFD05463DB9DE48007820B133
:103D900004F14800FFF78FFD0546FFF726FB1DBB2A
:103DA000207810BB2069401CA065217E891C01225F
:103DB0008A40A06D5043A065217A01208840E065CB
:103DC000207A0A2807DD217A0A3901228A40A06D6B
:103DD0005043A06514E0207AC0F10A02012090400F
:103DE000A16DB1FBF0F0A0650AE02069401CA06560
:103DF000217A01208840E065D4E916014843A06596
:103E0000284670BD7CB50446207808B9012000E042
:103E1000002005461DB1BCA003F0B0F802E0BFA031
:103E200003F0ACF8C1A0A16D03F0A8F8C6A0E16D45
:103E300003F0A4F8CCA003F0A1F894F83010D5A0BA
:103E400003F09CF83220025D94F83310D7A003F001
:103E500095F83820005D3421095DCDE9001094F813
:103E6000353094F8362094F83710D8A003F086F84F
:103E70003920005D00F00F023920005D0109DAA051
:103E800003F07CF8DFA0E16B03F078F84220005DDE
:103E900000F00F024220005BC0F3071000F5FA614A
:103EA000E0A003F06BF84420005D00F07F01E7A084
:103EB00003F064F8E9A003F061F8002D71D0F1A0DF
:103EC00003F05CF8E078C0F3C300102849D2DFE8C3
:103ED00000F0080C1014181C2024282C3034383C16
:103EE0004044EFA003F04AF83CE0EEA003F046F8AF
:103EF00038E0EDA003F042F834E0ECA003F03EF827
:103F000030E0EBA003F03AF82CE0EAA003F036F83A
:103F100028E0E9A003F032F824E0E8A003F02EF84E
:103F200020E0E7A003F02AF81CE0E6A003F026F862
:103F300018E0E5A003F022F814E0E4A003F01EF876
:103F400010E0E3A003F01AF80CE0E2A003F016F88A
:103F500008E0E1A003F012F804E0E0A003F00EF89E
:103F600000E000BF00BFDEA003F008F8E07800F03A
:103F70000700082826D2DFE800F004080C10151905
:103F80001D21D9A002F0FAFF1DE0D8A002F0F6FF33
:103F900019E0D7A002F0F2FF15E0D6A002F0EEFF84
:103FA00011E015E0D4A002F0E9FF0CE0D3A002F08C
:103FB000E5FF08E0D2A002F0E1FF04E0D1A002F0AA
:103FC000DDFF00E000BF00BF2179CFA002F0D6FFE7
:103FD0006179D8A002F0D2FF60790B280ED02B288F
:103FE00010D0322802D05A2810D103E0D9A002F014
:103FF000C5FF0FE0DAA002F0C1FF0BE0DBA002F08A
:10400000BDFF07E0DCA002F0B9FF03E046A002F02C
:10401000B5FF00BF00BFDBA002F0B0FFA07900F049
:10402000010010B1DDA002F0A9FFA07900F00200AC
:1040300010B1DDA002F0A2FFA07900F0040010B1E1
:10404000DAA002F09BFFA07900F0080010B1DAA01E
:1040500002F094FFA07900F0100010B1D7A002F098
:104060008DFFA07900F0200010B1D7A002F086FFEC
:10407000A07900F0400010B1D6A002F07FFFA07937
:1040800000F0800010B1D6A002F078FFE08800F4C4
:10409000807010B1D5A002F071FFE08800F40070CC
:1040A00010B1D4A002F06AFFE08800F4806010B183
:1040B000D2A002F063FFE08800F4006010B1D2A04B
:1040C00002F05CFF18A002F059FFA5B1237A01208D
:1040D00000FA03F21946CDA002F050FF617AD7A092
:1040E00002F04CFFA17ADFA002F048FFE17AE5A0E0
:1040F00002F044FF07E2EBA002F040FFF5A002F05F
:104100003DFFFDE13C02002053445343202876311B
:10411000206F72207632290A000000005344484381
:10412000206F7220534458430A00000043617264B8
:10413000204361706163697479203A20256C752091
:104140004B62797465730A004361726420426C6F3C
:10415000636B2053697A65203A20256C752062795B
:104160007465730A000000000A2020202043617259
:1041700064206964656E74696669636174696F6EF1
:104180002072656769737465722028434944290A5F
:10419000000000004D616E75666163747572657232
:1041A000204944203A2025640A0000004F454D2054
:1041B0002F204170706C69636174696F6E2049448F
:1041C000203A20256325630A0000000050726F64C6
:1041D000756374204E616D65203A20256325632543
:1041E00063256325630A000050726F647563742051
:1041F0005265766973696F6E203A2025642E2564B6
:104200000A00000050726F64756374205365726910
:10421000616C204E756D626572203A20256C750ABE
:10422000000000004D616E75666163747572696EA1
:104230006720446174652028595959592D4D4D29DD
:10424000203A2025642D25640A00000043494420BB
:10425000435243203A2025640A0000000A2020200F
:1042600020436172642D73706563696669632064BD
:1042700061746120726567697374657220284353A5
:1042800044290A004461746120726561642061639D
:10429000636573732D74696D65203A20000000001A
:1042A000302E3000312E3000312E3200312E3300CE
:1042B000312E3500322E3000322E3500332E3000B4
:1042C000332E3500342E3000342E3500352E30009C
:1042D000352E3500362E3000372E3000382E300087
:1042E00020782031000000006E000000306E0000D9
:1042F00030306E0075000000307500003030750001
:104300006D000000306D0000730A4461746120721A
:10431000656164206163636573732D74696D6520E5
:10432000696E20434C4B206379636C6573203A209F
:1043300025640A004D61782E2062757320636C6FCE
:10434000636B206672657175656E6379203A20250E
:1043500078000000202832354D687A290A000000D4
:10436000202835304D687A290A0000002028313095
:10437000304D687A290A000020283230304D687AA2
:10438000290A00000A4361726420636F6D6D616EDB
:104390006420636C6173736573203A002030286277
:1043A0006173696329000000203100002032287207
:1043B0006561642900000000203300002034287764
:1043C0007269746529000000203528657261736583
:1043D0002900000020362870726F7465637429000C
:1043E0002037286C6F636B2900000000203828619B
:1043F00070702900203928692F6F2900203130285A
:104400007377697463682900203131004D61782E1B
:104410002072656164206461746120626C6F636BFB
:10442000206C656E677468203A202564202820255A
:104430006420627974657320290A000050617274E7
:1044400069616C20626C6F636B7320666F7220729F
:1044500065616420616C6C6F776564203A20256427
:104460000A000000577269746520626C6F636B20EC
:104470006D6973616C69676E6D656E74203A202595
:10448000640A00005265616420626C6F636B206D8A
:104490006973616C69676E6D656E74203A2025647E
:1044A0000A0000004D61782E20726561642064610D
:1044B000746120626C6F636B206C656E677468203A
:1044C0003A20616C776179732035313220627974DA
:1044D00065730A005061727469616C20626C6F636D
:1044E0006B7320666F722072656164206172652053
:1044F0006E6F7420616C6C6F7765640A0000000059
:1045000095A002F03BFD217B9FA002F037FDA4A007
:10451000216902F033FD002D6FD0ACA002F02EFD1A
:10452000207D082825D2DFE800F004080C101418BC
:104530001C20AEA002F022FD1CE0ADA002F01EFD8A
:1045400018E0ACA002F01AFD14E0ABA002F016FDDA
:1045500010E0AAA002F012FD0CE0A9A002F00EFDEE
:1045600008E0A8A002F00AFD04E0A7A002F006FD02
:1045700000E000BF00BFA5A002F000FD607D08289C
:1045800025D2DFE800F004080C1014181C2097A0B6
:1045900002F0F4FC1CE096A002F0F0FC18E095A0FC
:1045A00002F0ECFC14E094A002F0E8FC10E093A010
:1045B00002F0E4FC0CE092A002F0E0FC08E091A024
:1045C00002F0DCFC04E090A002F0D8FC00E000BFA8
:1045D00000BF97A002F0D2FCA07D082826D2DFE819
:1045E00000F004080D1115191D2181A002F0C6FC70
:1045F0001DE080A002F0C2FC19E07AE07EA002F08B
:10460000BDFC14E07DA002F0B9FC10E07CA002F03B
:10461000B5FC0CE08FA002F0B1FC08E08EA002F027
:10462000ADFC04E08DA002F0A9FC00E000BF00BFDB
:104630008BA002F0A3FCE07D082825D2DFE800F083
:1046400004080C1014181C2069A002F097FC1CE050
:1046500068A002F093FC18E067A002F08FFC14E061
:1046600066A002F08BFC10E065A002F087FC0CE075
:1046700078A002F083FC08E077A002F07FFC04E061
:1046800076A002F07BFC00E000BF00BF217E7DA091
:1046900002F074FCE07E20B9217F82A002F06EFC63
:1046A00002E08CA002F06AFC14F81D1F96A002F034
:1046B00065FC61789CA002F061FCE07800F03F02AC
:1046C000012000FA02F1A1A002F058FC207900F0CC
:1046D0000F02012000FA02F1A6A002F04FFC61795E
:1046E000ADA002F04BFC217A1D3CB5A002F046FCC7
:1046F0000EE078A002F042FCB7A002F03FFCBEA0A2
:1047000002F03CFCC2A002F039FCCCA002F036FC66
:1047100014F8261FD4A002F031FC6178D8A002F072
:104720002DFCA178263CDFA002F028FC8DB1E6A08C
:1047300002F024FC94F8290030B1012808D00228A6
:1047400008D0032807D1E5E1E3A002F017FCE6E179
:10475000D8E1E5E1DAE1E1E1526561642F57726980
:10476000746520626C6F636B206D6973616C69673F
:104770006E6D656E74206973206E6F7420616C6C51
:104780006F7765640A00000044535220696D706CB5
:10479000656D656E746564203A2025640A0000002A
:1047A0004465766963652053697A65202834313120
:1047B00032203C3D20616E64203C3D20363533374D
:1047C00035293A20256C750A000000004D61782ECD
:1047D00020726561642063757272656E7420617405
:1047E00020564444206D696E203A2000302E35005A
:1047F000310000003500000031300000323500008B
:104800003335000036300000313030006D410A4D44
:1048100061782E20726561642063757272656E74B2
:1048200020617420564444206D6178203A200000B5
:104830006D410A4D61782E20777269746520637529
:104840007272656E7420617420564444206D696EE6
:10485000203A20003435000038300000323030007B
:104860006D410A4D61782E207772697465206375F9
:104870007272656E7420617420564444206D6178B4
:10488000203A20006D410A446576696365207369AA
:104890007A65206D756C7469706C696572203A2058
:1048A00025640A0045726173652073697A65203A50
:1048B0002031206F72206D6F726520756E69747380
:1048C000206F6620256420627974657320656163BA
:1048D000680A000045726173652073697A65203A41
:1048E0002031206F72206D6F726520626C6F636B78
:1048F00073206F66203531322062797465732065CC
:104900006163680A00000000577269746520707264
:104910006F746563742067726F75702073697A6550
:10492000203A2025640A000057726974652070726D
:104930006F746563742067726F757020656E616255
:104940006C65203A2025640A0000000057726974E3
:104950006520737065656420666163746F722028DA
:104960005477726974652F547265616429203A2006
:1049700025640A004D61782E207772697465206481
:1049800061746120626C6F636B206C656E67746824
:10499000203A2025640A00005061727469616C201D
:1049A000626C6F636B7320666F72207772697465D7
:1049B00020616C6C6F776564203A2025640A0000E2
:1049C00046696C6520666F726D61742067726F75E1
:1049D00070203A2025640A0057726974652070724D
:1049E0006F746563742067726F757020646973619A
:1049F000626C65640A00000057726974652074690E
:104A00006D656F7574203A203235306D730A000081
:104A10004D61782E2077726974652064617461201D
:104A2000626C6F636B206C656E677468203A20352A
:104A300031322062797465730A000000506172742B
:104A400069616C20626C6F636B7320666F72207794
:104A50007269746520617265206E6F7420616C6C80
:104A60006F7765640A000000436F707920666C619F
:104A70006720284F545029203A2025640A0000005E
:104A80005065726D616E656E742077726974652011
:104A900070726F74656374696F6E203A2025640AC2
:104AA0000000000054656D706F726172792077723A
:104AB0006974652070726F74656374696F6E203AF3
:104AC0002025640A0000000046696C6520466F726C
:104AD0006D6174203A2000004844442D6C696B6578
:104AE0002066696C652073797374656D20776974CD
:104AF0006820706172746974696F6E207461626C91
:104B0000650A00008DA002F039FA08E09BA002F0CF
:104B100035FA04E09FA002F031FA00E000BF00BFC8
:104B200094F82B109FA002F029FAA24800780028E0
:104B300071D0A1A002F022FA94F84810A9A002F0C6
:104B40001DFAAFA002F01AFA4920005D20B1012839
:104B500006D0022813D107E0B5A002F00FFA12E048
:104B6000B9A002F00BFA0EE04D20005D08B9BAA022
:104B700000E0BBA00146BCA002F000FA03E0BDA02B
:104B800002F0FCF900BF00BF4A20005D08B1BCA0E4
:104B900000E0BCA00146BCA002F0F0F9C5A002F004
:104BA000EDF94B20005D052818D2DFE800F003077F
:104BB0000B0F1300C6A002F0E1F913E0C7A002F04A
:104BC000DDF90FE0C8A002F0D9F90BE0CCA002F0AB
:104BD000D5F907E0D0A002F0D1F903E0A5A002F0DA
:104BE000CDF900BF00BFD2A002F0C8F94C20005D93
:104BF00000F0010010B1D5A002F0C0F94C20005D1A
:104C000000F0040010B1D3A002F0B8F94E20005D0E
:104C100010B9D2A001E018E08AA00146D1A002F0AC
:104C2000ADF95220005D08B1592000E04E20014648
:104C3000D5A002F0A3F95320005D08B1592000E08F
:104C40004E200146DBA002F099F9E6A002F096F9A9
:104C50007CBD10B50446E5A002F090F955480078F7
:104C6000002868D0EBA002F089F9207810B1022862
:104C700008D103E0EBA002F081F907E0EBA002F01D
:104C80007DF903E07BA002F079F900BF00BF6078F6
:104C900008B16CA000E0B1A00146E6A002F06EF9F8
:104CA000ECA002F06BF9A08820B1012806D0022800
:104CB0000CD107E0EBA002F061F90BE0EDA002F0EF
:104CC0005DF907E0EEA002F059F903E0EFA002F071
:104CD00055F900BF00BFF0A0A16802F04FF9F6A09F
:104CE00002F04CF9207B052818D2DFE800F003071A
:104CF0000B0F1300F4A002F041F913E0F4A002F04E
:104D00003DF90FE0F4A002F039F90BE0F4A002F055
:104D100035F907E0F4A002F031F903E0F5A002F064
:104D20002DF900BF00BFF6A002F028F9607B18B192
:104D3000FF2802D1F4E1A2E2EEE1F5E1444F532075
:104D400046415420284644442D6C696B65292077E0
:104D500069746820626F6F7420736563746F72206A
:104D60006F6E6C7920286E6F20706172746974693F
:104D70006F6E207461626C65290A0000556E697659
:104D8000657273616C2046696C6520466F726D6157
:104D9000740A00004F74686572732F556E6B6E6FE6
:104DA000776E0A0043534420435243203A2025643F
:104DB0000A0000003C0200200A202020205344204A
:104DC0004361726420636F6E6669677572617469AE
:104DD0006F6E207265676973746572202853435241
:104DE000290A0000534352207374727563747572FC
:104DF000652076657273696F6E203A2025640A001B
:104E0000506879736963616C206C61796572207395
:104E1000706563696669636174696F6E2076657237
:104E200073696F6E206E756D626572203A200000A6
:104E300056657273696F6E20312E3020616E64206A
:104E4000312E30310000000056657273696F6E209C
:104E5000312E313000000000322E303000000000D2
:104E6000332E30780000000056657273696F6E2033
:104E7000257300007265736572766564000000003A
:104E800046460000303000000A5374617465206F9C
:104E9000662062697473206166746572207365634D
:104EA000746F72206572617365203A2030782573C3
:104EB0000A0000004350524D207365637572697497
:104EC000792076657273696F6E203A2000000000C9
:104ED0006E6F207365637572697479006E6F7420EC
:104EE0007573656400000000534453432073656389
:104EF00075726974792076657220312E3031000028
:104F000053444843207365637572697479207665EC
:104F10007220322E303000005344584320736563B2
:104F200075726974792076657220332E7878000066
:104F30000A537570706F72746564206461746120C7
:104F4000627573207769647468203A0020312062AA
:104F5000697400002034206269740000206E6F7450
:104F6000000000000A457874656E6465642073650E
:104F70006375726974792069732573207375707015
:104F80006F727465640A0000537570706F727420DC
:104F90006F6620434D443233202873657420626C61
:104FA0006F636B20636F756E7429203A2025630A46
:104FB00000000000537570706F7274206F6620439C
:104FC0004D4432302028737065656420636C6173D2
:104FD0007320636F6E74726F6C29203A2025630A08
:104FE000000000000A444F4E450A00000A44756D57
:104FF00070696E672053442043617264207374614A
:1050000074757320696E666F726D6174696F6E3A44
:105010000A0A0000427573207769647468203A2098
:1050200000000000312062697400000034206269D1
:10503000747300000A53442063617264206973250D
:105040007320696E2073656375726564206D6F648B
:10505000650A0000436172642054797065203A202B
:1050600000000000526567756C6172205344206334
:1050700061726400534420524F4D2063617264009A
:105080004F54502063617264000000006F746865C3
:1050900072206361726400000A53697A65206F664A
:1050A0002070726F7465637465642061726561203D
:1050B0003A20256C750A0000537065656420636CA6
:1050C000617373203A200000436C617373203000D9
:1050D000436C617373203200436C6173732034003E
:1050E000436C617373203600436C617373203130FD
:1050F0000000000052657365727665640000000070
:105100000A506572666F726D616E6365206D6F76B1
:1051100065203A20000000005BA001F02FFF08E0AE
:105120005EA001F02BFF04E0617B5FA001F026FF91
:1051300000BF00BF5FA001F021FFA07B102849D273
:10514000DFE800F0080C1014181C2024282C303440
:10515000383C40445EA001F011FF3CE05FA001F04C
:105160000DFF38E05FA001F009FF34E05FA001F01F
:1051700005FF30E05FA001F001FF2CE05FA001F02F
:10518000FDFE28E05FA001F0F9FE24E05FA001F041
:10519000F5FE20E05FA001F0F1FE1CE05FA001F051
:1051A000EDFE18E05FA001F0E9FE14E05FA001F061
:1051B000E5FE10E05FA001F0E1FE0CE05FA001F071
:1051C000DDFE08E05FA001F0D9FE04E05FA001F081
:1051D000D5FE00E000BF00BF218A5EA001F0CEFE38
:1051E000A17C63A001F0CAFEE17C68A001F0C6FECC
:1051F000207D08B96CA000E06EA0014670A001F00F
:10520000BDFE77A001F0BAFE607D102831D2DFE844
:1052100000F0083030303030300C1014181C2024CE
:10522000282C2BA001F0AAFE28E038A001F0A6FE51
:1052300024E038A001F0A2FE20E038A001F09EFE9C
:105240001CE038A001F09AFE18E038A001F096FEAC
:1052500014E038A001F092FE10E038A001F08EFEBC
:105260000CE038A001F08AFE08E038A001F086FECC
:1052700004E0AFF2983001F081FE00BF00BF62A0F1
:1052800001F07CFE10BD000053657175656E746998
:10529000616C20777269746500000000496E666970
:1052A0006E697479000000002564204D622F7365DB
:1052B000630000000A416C6C6F636174696F6E205B
:1052C000556E69742073697A65203A2000000000E9
:1052D0006E6F7420646566696E6564003136204BBC
:1052E000620000003332204B620000003634204B55
:1052F00062000000313238204B6200003235362027
:105300004B620000353132204B62000031204D628B
:105310000000000032204D620000000034204D6289
:105320000000000038204D62000000003132204DA6
:10533000620000003136204D620000003234204D02
:10534000620000003332204D620000003634204DF0
:10535000620000000A45726173652053697A652016
:105360003A20256420415520626C6F636B730A00FC
:1053700045726173652054696D656F7574203A20BC
:105380002564207365636F6E64730A0045726173F0
:1053900065204F6666736574203A20256420736526
:1053A000636F6E64730A00003C203130204D622F21
:1053B000736563003E203130204D622F73656300BA
:1053C000537065656420477261646520666F722062
:1053D000554853206D6F6465203A2025730A0000FC
:1053E000416C6C6F636174696F6E20556E697420D7
:1053F00073697A6520666F7220554853206D6F641B
:1054000065203A20000000000A0A444F4E450A0079
:1054100010B5002407E004EB8401F84A02EB810098
:1054200001F058F8641C052CF5D3F54801F052F84A
:10543000F44801F04FF8F44801F04CF8F34801F05B
:1054400049F8F34801F046F8ED48F2490860ED48A4
:10545000F149086010BD2DE9F04704460F46154696
:105460009946DDF82080002607E0B95D04F134009C
:105470008155B85D00B902E0761C102EF5D300BF4F
:10548000002143200155052D00D30425E562656404
:105490000020A064201D01F02AF804F1180001F09A
:1054A00026F82461C5F10500A06164620020E06473
:1054B00084F85000BDE8F0872DE9F04106460F461C
:1054C0001FB9B00001F0DBFB00E03846054655B1DE
:1054D000542001F0D4FB04460CB1256304E02846B7
:1054E00001F020FC00E000242046BDE8F0812DE919
:1054F000FF4F81B0804615469946DDE90E7A284671
:105500001099FFF7D9FF0446002C4FD0681E216B7D
:1055100001EB800B2BF0070B00953A462046119BC0
:105520000299FFF798FF4A464146584601F02CFB86
:105530002060BAF1000F01D0CAF8004001F058FB1A
:10554000B6480068401CB5490860B548006840B9D5
:10555000B34804600846006801280CD1FFF758FFE3
:1055600009E0B048006830B9AD480068C06AB84288
:1055700001D8AB480460AC480068401CAA490860E8
:1055800094F82C1001208840A84909680843A749CD
:105590000860E16A01EB8101984A02EB8100211D5C
:1055A00000F0A8FF012601F030FB01E04FF0FF36CC
:1055B000012E09D19B48006830B199480068C06A43
:1055C000B84201D201F00AFB304605B0BDE8F08FC9
:1055D00090490968096809B9012100E0002121B159
:1055E0004FF0FF31924A116006E08A490968C968A4
:1055F000C8688F4A41681160704770B5054601F070
:10560000F7FA15B98648006800E028460446201DD0
:1056100000F096FF78B9E06A00EB8000774951F816
:10562000200040B994F82C10012088407F49096877
:1056300081437E480160A06A18B104F1180000F0AF
:105640007FFF211D714800F055FF7A480068401C1B
:105650007849086074480068401C7349086001F08C
:10566000D4FA7048006860B16D480068844202D185
:1056700001F0B4FA05E001F0BBFAFFF7A9FF01F071
:10568000C4FA70BD2DE9F04100276B48006800287E
:1056900065D16A480068401C684908600846066889
:1056A0008EB95C48D0F800805B48006859490860B2
:1056B0005948C0F8008062480068401C6049086092
:1056C000FFF786FF00BF5A48006886423BD300BF01
:1056D00050480068006808B9012000E0002020B1AF
:1056E0004FF0FF30524908602CE04A480068C0681B
:1056F000C4686568AE4202D24D48056022E0201DB4
:1057000000F01EFFA06A18B104F1180000F018FFA5
:1057100094F82C1001208840444909680843434903
:105720000860E16A01EB8101344A02EB8100211D2E
:1057300000F0E0FE3A49E06A0968C96A8842C7D3C6
:105740000127C5E700BF36480068C06A00EB80004B
:105750002A4951F82000012806D9012704E03948D8
:105760000068401C374908603748006800B10127CD
:105770003846BDE8F08170B5002501F039FA2E48B1
:105780000068401E2C49086008460068002874D153
:1057900022480068002870D024E01B48C068C46814
:1057A00004F1180000F0CCFE201D00F0C9FE94F8B2
:1057B0002C10012088401D49096808431B490860D6
:1057C000E16A01EB81010D4A02EB8100211D00F02D
:1057D00091FE1349E06A0968C96A884202D3012030
:1057E000194908600848006808B9012000E0002055
:1057F0000028D2D01348006840B333E0B402002040
:10580000180300202C030020400300205403002034
:1058100068030020440200204802002050020020BB
:10582000400200205C0200206C0200205802002090
:10583000700200204C02002074020020540200205C
:105840006802002060020020640200200EE0FFF7E2
:1058500019FF10B10120FE490860FE480068401E93
:10586000FC490860FB4800680028F0D1F84800684F
:10587000012802D1012501F0B1F901F0C6F928464D
:1058800070BD10B50446F44800684460F3480068F1
:10589000844207D2F0480168091DF148006800F011
:1058A00035FE0CE0EC480168091DEE48006800F088
:1058B0002DFEED480068844201D2EB48046010BD23
:1058C000EA480068401CE949086070472DE9F04744
:1058D000044688464FF00009FFF7F2FFDF480768EB
:1058E000206800EB08052068B84207D92068A84264
:1058F0000BD9BD4209D94FF0010906E02068A84242
:1059000001D8BD4201D94FF001092560B9F1000F5E
:1059100013D0D1480068001D00F012FE50B9CE48E7
:10592000006890F82C1001208840D1490968814313
:10593000CF4801602846FFF7A4FFFFF71CFF06468B
:105940000EB901F04BF9BDE8F08770B504460026AA
:10595000DCB1FFF7B5FFC14800680519BE48006813
:10596000001D00F0EDFD50B9BB48006890F82C1008
:1059700001208840BE4909688143BD48016028462E
:10598000FFF77FFFFFF7F7FE06460EB901F026F995
:1059900070BD70B5044601F02BF914B9AE4800682B
:1059A00000E020460646F56A01F02FF9284670BD52
:1059B0002DE9F0410446FAF7E7FB064614B9A6487C
:1059C000006800E020460746FD6A3046FAF7E3FB30
:1059D0002846BDE8F0812DE9F04780460D464FF09E
:1059E0000009052D00D3042501F002F9B8F1000FDC
:1059F00002D19948006800E040460446666CAE4219
:105A000050D0B5420BD99448006884420DD09248DA
:105A10000068C06AA84208D84FF0010905E08E4826
:105A20000068844201D14FF00109E76AE16A606CC5
:105A3000884200D1E5626564A06900F0004010B9B9
:105A4000C5F10500A06107EB87018A4A02EB8101DD
:105A50006069884201D1012000E00020E0B1201DF2
:105A600000F06EFD30B90120B840814909688143DA
:105A70007F48016094F82C10012088407C49096817
:105A800008437B490860E16A01EB8101794A02EB36
:105A90008100211D00F02EFDB9F1010F01D101F0AF
:105AA0009DF800BF01F0B1F8BDE8F0876F480068CD
:105AB00018B10120664908601DE0002064490860B3
:105AC0006B480068B0FA80F0C0F11F0101EB810261
:105AD000684B03EB820042685268426000F10802A2
